:020000040800F2
:1000000008080020D5010008E9120008350D000895
:1000100099120008A3070008B5210008000000009D
:10002000000000000000000000000000A115000812
:10003000ED0A000800000000291400080917000854
:10004000EF010008EF010008EF010008EF010008D0
:10005000EF010008EF010008EF010008EF010008C0
:10006000EF010008EF010008EF010008EF010008B0
:10007000EF010008EF010008A5070008CD07000800
:10008000EF010008EF010008EF010008EF01000890
:10009000EF010008EF010008EF010008EF01000880
:1000A000EF010008B9190008EF010008EF0100088E
:1000B000851A0008EF010008951A0008EF010008F2
:1000C000EF010008EF010008EF010008EF01000850
:1000D000EF0100080D200008EF010008EF01000803
:1000E000EF010008EF010008EF010008EF01000830
:1000F000EF010008EF010008EF010008EF01000820
:10010000EF010008EF010008EF010008EF0100080F
:10011000EF010008EF010008EF010008EF010008FF
:10012000EF010008EF010008EF010008EF010008EF
:1001300000F002F800F03FF80AA090E8000C8244BA
:100140008344AAF10107DA4501D100F034F8AFF297
:10015000090EBAE80F0013F0010F18BFFB1A43F0A5
:10016000010318477C7800009C780000103A24BFF7
:1001700078C878C1FAD8520724BF30C830C144BF0C
:1001800004680C607047000000230024002500264E
:10019000103A28BF78C1FBD8520728BF30C148BFEA
:1001A0000B607047642900F06780002070471FB51E
:1001B0001FBD10B510BD00F0C9FA1146FFF7F7FFDB
:1001C00004F06AF900F0E7FA03B4FFF7F2FF03BCAA
:1001D00002F02FFB0948804709480047FEE7FEE789
:1001E000FEE7FEE7FEE7FEE7FEE7FEE7FEE7FEE7E7
:1001F00004480549054A064B704700000D170008E2
:10020000310100080802002008080020080400202E
:1002100008040020704710B54C1084EA530404D53C
:100220004042C1F1000138BF491E1B4204D5524271
:10023000C3F1000338BF5B1E00F055F914F0804F86
:1002400004D04042C1F1000138BF491E14F0004FF4
:1002500004D05242C3F1000338BF5B1E10BD000042
:100260000FB4044910B503AA029800F017FA10BCA5
:100270005DF814FB180000202DE9F041064600242B
:1002800010687529314616A510D0AFF300800028FC
:1002900002DA404213A507E031688A0701D512A5AA
:1002A00002E0490704D511A5012401E0AFF3008065
:1002B00000210A2206F1240709E0B0FBF2FCB0FBA2
:1002C000F2F302FB1C00303078541846491C002819
:1002D000F3D123462A463046BDE8F04100F085B907
:1002E000000000002D0000002B0000002000000096
:1002F0002DE9F05F894604464FF0000ADFF824B18B
:10030000FB44C0F820A02046E168884700287DD043
:10031000252806D0D4E901219047206A401C20629C
:10032000F1E700255F462046E16888472028064619
:1003300007DB312E05D2B81910F8200C08B105439F
:10034000F1E7A80701D525F00405C4F81CA0002793
:10035000C4F818A02A2E09D0304602F063FA38B348
:1003600004EB8708303EC8F8186019E059F8041B00
:10037000204604EB87029161E1688847012F064619
:1003800018D1E069002820DA25F020051DE0D8F812
:10039000180000EB800006EB40003038C8F8180069
:1003A0002046E1688847064602F03CFA0028EED174
:1003B000012F0AD02E2E08D12046E16888477F1CE5
:1003C0000646022F45F02005C4DBA069002803DAA9
:1003D000404245F00105A061E80701D025F0100575
:1003E000A6B1A6F14100192802D8203645F40065CF
:1003F0004A463146204625604D46FFF7D3FE60B1A0
:10040000012807D0ED1D25F0070000E007E000F10E
:10041000080978E705F1040975E730467AE7206AAC
:10042000BDE8F09F6674000040EA010310B59B0729
:100430000FD1042A0DD310C808C9121F9C42F8D04E
:1004400020BA19BA884201D9012010BD4FF0FF30FF
:1004500010BD1AB1D30703D0521C07E0002010BD15
:1004600010F8013B11F8014B1B1B07D110F8013BA1
:1004700011F8014B1B1B01D1921EF1D1184610BD82
:1004800002F0FF0343EA032242EA024200F01AB9F3
:100490004FF0000200B5134694469646203922BF1D
:1004A000A0E80C50A0E80C50B1F12001BFF4F7AF68
:1004B000090728BFA0E80C5048BF0CC05DF804EB4A
:1004C000890028BF40F8042B08BF704748BF20F8B8
:1004D000022B11F0804F18BF00F8012B70477047B6
:1004E00070477047704753EA020C00F069802DE9AD
:1004F000F04B4FF00006002B1FBFB3FA83F503FA51
:1005000005F424FA05F65E4012BF1643B2FA82F5EE
:1005100002FA05F4C5F120051EBF22FA05FC44EAE3
:100520000C04203556EA044C4FEA144418BF641CEE
:100530004FF000084FF00009904271EB030C39D3E3
:10054000002919BFB1FA81F701FA07F6B0FA80F76E
:1005500000FA07F6C7F120071EBF20FA07FC46EA9B
:100560000C062037B6FBF4FCA7EB0507103F07F09D
:100570001F0BCBF120060CFA0BFB2CFA06F644BF3E
:10058000B3460026202FA4BF5E464FF0000B5BEA67
:10059000060C08BF4FF0010B19EB0B09ABFB027CFB
:1005A00048EB0608C01B06FB02CC0BFB03CC71EB2F
:1005B0000C01C1E70B46024641464846BDE8F08BB8
:1005C00013B54FF000004FF00001AFF30080BDE81D
:1005D0001C40704710B500F095F8006810BD10B5CC
:1005E000044600F08FF8046010BD2DE9F0470D4679
:1005F00099469246044600F124080168880604D50D
:10060000E06921F01001216000E00120A84201DD35
:10061000471B00E00027A1697A1902EB0900081ABC
:10062000A0612078C00602D42046AFF300800026E7
:1006300008E0D4E901211AF806009047206A401C1E
:10064000761C20624E45F4DB2078C0060AD5204691
:10065000AFF3008006E0D4E9012130209047206A02
:10066000401C2062381EA7F10107F4DC07E0D4E942
:10067000012118F805009047206A401C2062281EBE
:10068000A5F10105F3DC2046AFF3008020780006D9
:1006900002D50220BDE8F0870120FBE7074B70B5CB
:1006A0000D467B4400F037F80446284600F046F833
:1006B00010B14FF0FF3070BD204670BD53350000C3
:1006C0004FF000020429C0F0128010F0030C3FF438
:1006D000E1AECCF1040CBCF1020F18BF00F8012B05
:1006E000A8BF20F8022BA1EB0C01FFF7D3BE5FEAF5
:1006F000C17C24BF00F8012B00F8012B48BF00F893
:10070000012B704700487047A401002001694A1C72
:1007100002610878704700B58FB0CDE90131002142
:10072000059105497944CDE9031011466846FFF764
:10073000DFFD0FB000BD0000E5FFFFFF007B00F014
:100740008000704700487047A40100207546FFF7FD
:10075000F9FFAE4605006946534620F0070085467E
:1007600018B020B5FFF744FDBDE820404FF000066B
:100770004FF000074FF000084FF0000B21F0070189
:10078000AC46ACE8C009ACE8C009ACE8C009ACE8CC
:10079000C0098D4670470446AFF300802046FFF73E
:1007A00013FDFEE710B54FF40054204600F0E2F8C8
:1007B000002808D0204600F047F8BDE8104000218E
:1007C000014800F04DB810BD4400024070B54FF430
:1007D0000035284600F0CEF800282DD0174C002117
:1007E000204600F03DF80E21204600F0FCF80121E3
:1007F000204600F035F8124C00224021204601F03E
:1008000031FC012240F22551204601F055FC0D48F3
:1008100003F054FA18B10E210A48FFF739FE2846B2
:1008200000F012F84FF4803000F00EF8BDE8704090
:100830004FF4802000F008B870BD0000580002405E
:100840000038014008010020C10002D502490860BB
:1008500070470249486070470404024000000240AB
:10086000002904D0016841F001010160704701686E
:100870004FF6FE72114001607047000001684FF6AC
:10088000FE72114001600021016041608160C16021
:100890003649364A0839904204D1486840F00F0082
:1008A00048607047314A1432904204D1486840F0A1
:1008B000F000486070472D4A2832904204D14868C1
:1008C00040F4706048607047284A3C32904204D13E
:1008D000486840F4704048607047244A5032904263
:1008E00004D1486840F47020486070471F4A643261
:1008F000904204D1486840F47000486070471B4A39
:100900007832904204D1486840F070604860704787
:10091000174A111F904204D1086840F00F00086088
:100920007047134A1432904204D1086840F0F00036
:10093000086070470E4A2832904204D1086840F49B
:100940007060086070470A4A3C32904204D10868DF
:1009500040F4704008607047054A50329042FAD126
:10096000086840F4702008607047000008000240EA
:100970000804024002460020D10002D5044909685B
:1009800001E004490968114200D0012070470000CD
:100990000004024000000240002A03D002680A431B
:1009A0000260704702688A430260704730B502688F
:1009B00047F6F0739A430C6A8B682343D1E90445E8
:1009C0002C4323438C692343CC6923434C6A234340
:1009D0008C6A234313430360CA6842600A688260DA
:1009E0004968C16030BD4160704710B504460021C0
:1009F0002046FFF735FF1B212046FFF7F4FF204676
:100A0000BDE810400121FFF72BBF00002DE9F047A2
:100A100082468846154699460121084600F006FDA3
:100A20004046FFF72BFF5046FFF728FF1A4C194F9F
:100A3000276065601020A0604020E06000252561EF
:100A400080266661A561E561256280016062A5621C
:100A500021464046FFF7AAFF00215046FFF700FF5E
:100A60002760C4F80490A5600E20E06025616661EF
:100A7000A561E56125624FF440506062A5622146A0
:100A80005046FFF793FF5046BDE8F0470121FFF7BE
:100A9000E7BE0000043801401801002070B5114C79
:100AA0000E20207002256570A5700126E670204694
:100AB00000F01CFC012202210B48FFF76DFF0F2004
:100AC00020706570A670E670204600F00FFC0648A6
:100AD000012202211430FFF75FFF2804BDE87040B7
:100AE000FFF7B2BE440000204400024070470000FF
:100AF00010B588B00121084600F0A6FC01210420B1
:100B000000F0BEFC0320ADF8040004208DF80700BF
:100B100001A91D4800F088F805A801F06DFA002031
:100B2000ADF814004FF6FF71ADF81810ADF81A00CB
:100B3000ADF816004FF0804405A9204601F00EFAEA
:100B400000231A460321204601F0C8F802A801F04C
:100B500031F90A21ADF8101002A9204601F0E4F89D
:100B60000121204600F0A0FF01221146204601F09D
:100B700029F90021204601F0C7F90121204600F0A3
:100B800099FF08B010BD00000008014010B588B002
:100B90000121042000F058FC0121082000F070FC25
:100BA000C020ADF8040028208DF8070001A91C48DA
:100BB00000F03AF805A801F01FFA0020ADF8140083
:100BC0004FF6FF71ADF81810ADF81A00ADF8160029
:100BD000144C05A9204601F0C1F900231A4603214F
:100BE000204601F07BF802A801F0E4F80A21ADF8F4
:100BF000101002A9204601F097F80121204600F0CC
:100C000053FF01221146204601F0DCF80021204666
:100C100001F07AF90121204600F04CFF08B010BD28
:100C2000000C0140000800402DE9F0410022CC7882
:100C300004F00F03E40601D58C7823430C784FF0C1
:100C40000F0714F0FF0F4FF0010C1CD005680CFAD1
:100C500002F40E882640A64211D1960007FA06F843
:100C600025EA080503FA06F848EA0505CE78282E95
:100C700002D0482E02D002E0446100E00461521C20
:100C8000082AE4D305600A88FF2A1ED94568002295
:100C900002F108060CFA06F40E882640A64210D18E
:100CA000960007FA06F825EA080503FA06F848EA66
:100CB0000505CE78282E00D14461CE78482E00D18B
:100CC0000461521C082AE3D34560BDE8F0810000AE
:100CD000F0B5154C002801DAE36900E06368C0F361
:100CE0000346420D120185B2C0F301579540032F10
:100CF00007D0C2020CD50322B240934343F0706286
:100D000009E023F07062636823F07063636002E0BF
:100D1000AB4343F0706201B12A43002801DAE2617B
:100D2000F0BD6260F0BD000000000140416170470D
:100D300001617047FEE7000038B50121102000F086
:100D40009FFB0220ADF8000003208DF80200102068
:100D50008DF80300044C69462046FFF765FF022129
:100D60002046FFF7E3FF38BD0010014030B589B0E1
:100D700004460D460121022000F066FB01210520FA
:100D800000F07EFBC022ADF8202018228DF8232031
:100D900003228DF8222008A91748FFF745FFADF878
:100DA0001840ADF814500024ADF81A40ADF81640C4
:100DB000124D05A9284601F0D1F86021ADF80410C4
:100DC0000121ADF80610ADF80C4001A9284601F04C
:100DD00003F801A9284601F049F80821284601F046
:100DE0003FF80821284601F085F80121284600F047
:100DF00061FE09B030BD0000000801400004004061
:100E000070B50A4C002525600948016821F0F00101
:100E10000160016841F030010160656000F00AF88E
:100E20000120206000F006F8256070BDA0812142FD
:100E3000040C0140022002F095B9000038B50121F0
:100E4000082000F01DFB4FF44074ADF80040102066
:100E50008DF8030003208DF80200054D69462846F1
:100E6000FFF7E2FE21462846FFF762FF38BD00008B
:100E7000000C014070B50A4C002525600948016846
:100E800021F0F0010160016841F0300101600126AC
:100E90006660FFF7CFFF2660FFF7CCFF256070BDCF
:100EA000A0812142040C01402DE9F0478146002435
:100EB0001548016821F0F0010160016841F08001EE
:100EC00001600025114E00274FF00108C6F8A071FF
:100ED000FFF7B0FFC6F8A0816006040ED6F8240123
:100EE00008B1641CE4B2FFF7A5FF6D1CEDB2082D3C
:100EF000ECD3B9F1000F04D0FFF782FF2046BDE824
:100F0000F087FFF7B7FFF9E7040C014000802142AA
:100F10002DE9F04105461148016821F0F00101601A
:100F2000016841F0300101600D4E4FF00008C6F835
:100F3000A08100240127E809C6F8A4016806050E6F
:100F4000C6F8A071FFF776FFC6F8A081FFF772FF21
:100F5000641CE4B2082CEED3BDE8F081040C01401F
:100F60000080214270B50A48016821F0F00101605B
:100F7000016841F030010160064C01206060206092
:100F8000FFF758FF00256560FFF754FF256070BD2F
:100F9000040C0140A081214210B50B48016821F0EA
:100FA000F0010160016841F030010160074C002050
:100FB00020606060FFF73EFF012020606060BDE8B8
:100FC0001040FFF737BF0000040C0140A081214210
:100FD00070B500241148016821F0F001016001683A
:100FE00041F0800101600E4D0126C5F8A461FFF7B4
:100FF00021FFC5F8A061FFF71DFF07E0641CE4B204
:10100000FA2C03D9FFF7C8FF012070BDD5F82401E1
:101010000028F3D1C5F8A00170BD0000040C014008
:101020000080214208B50121084600F029FA01217B
:10103000042000F025FA4FF40040ADF80000102025
:101040008DF8030003208DF8020069462148FFF760
:10105000EBFD01212048FFF73BFE204900200860FE
:10106000FFF7ECFE80216B2000F0C7F8642002F04F
:101070005FF800216B2000F0C0F8032000F08AF830
:10108000002000F082F8322000F0A1F80021382082
:1010900000F0B3F800216A2000F0AFF8002123200F
:1010A00000F0ABF88021372000F0A7F8752000F0A1
:1010B00017F8682801D0012008BD01216B2000F03D
:1010C0009CF800216C2000F098F8322000F07FF8A6
:1010D000002008BD0008014000023000BC01214290
:1010E00010B50446FFF73EFFD020FFF711FFFFF7D2
:1010F0006FFF2046FFF70CFFFFF76AFFFFF732FF95
:10110000D120FFF705FFFFF763FF0020FFF7CCFEBC
:101110000446FFF741FF204610BD2DE9F041064689
:101120000F4615461C46FFF71DFF7006000EFFF721
:10113000EFFEFFF74DFF20B1FFF72EFF0120BDE8C6
:10114000F0813846FFF7E4FEFFF742FFFFF70AFFA2
:10115000012000EB4600C0B2FFF7DAFEFFF738FFD0
:1011600008E0012D0CD00120FFF79EFE20706D1EBF
:10117000EDB2641C002DF4D1FFF70EFF0020DEE776
:101180000020FFF791FE2070F1E7C006010E1C2041
:1011900000F033B8C006010E1B2000F02EB8BC28AA
:1011A00001D3012110E0622801D302210CE02A289A
:1011B00001D3032108E0142801D3042104E00A2804
:1011C00001D3052100E006211A2000F016B810B561
:1011D00004464FF47A70844200D90446042C00D2AD
:1011E0000424B0FBF4F0401EC1B2192000F005F851
:1011F0006008BDE81040FFF7D2BF70B505460C4649
:10120000FFF7B0FED020FFF783FEFFF7E1FE18B135
:10121000FFF7C2FE012070BD2846FFF779FEFFF7F9
:10122000D7FE2046FFF774FEFFF7D2FE18B1FFF796
:10123000B3FE012070BDFFF7AFFE002070BD2DE9A9
:10124000F04104460F4616461D46FFF78BFE60062A
:10125000000EFFF75DFEFFF7BBFE20B1FFF79CFE1F
:101260000120BDE8F0813846FFF752FEFFF7B0FEDF
:1012700000240BE0285DFFF74BFEFFF7A9FE18B135
:10128000FFF78AFE0120ECE7641CE4B2B442F1D31C
:10129000FFF782FE0020E4E7FEE70000F8B5012139
:1012A000042000F0EDF80121102000F0E9F83024CE
:1012B000ADF8004010258DF8035003268DF802602C
:1012C00069460748FFF7B0FCADF800408DF80350C1
:1012D0008DF8026069460348FFF7A6FCF8BD0000E0
:1012E00000080140001001407047000070B50F2356
:1012F000C27801260178002A1ED0144A126802F42E
:10130000E062C2F5E062120AC2F10404D3404578FB
:10131000A54082781A402A43120101F1E02181F8A8
:101320000024007800F01F018E404009800000F189
:10133000E020C0F8006170BD01F01F008640480940
:10134000800000F1E020C0F8806170BD0CED00E08D
:101350000249084302490860704700000000FA058E
:101360000CED00E0074B0360074B4360074B8360C5
:101370000023C360036143618361C3610162426210
:1013800070470000F6281C3F0AD7233CCDCC4C3ECA
:101390002DE9F04105461446284605F0AFFAE06015
:1013A0002846E16905F0DCF803D0E5610020A06182
:1013B0000DE0E168A06904F09DFFA0611749884233
:1013C00001DBA16103E01649884200D3A161D4E9A1
:1013D0000350294605F092FAA16805F091F90646F6
:1013E000A169606805F08CF907462946206805F078
:1013F00087F9394604F07EFF314604F07BFF06464C
:10140000206A05F01DF90146304604F0E7FF054962
:1014100005F076F92561BDE8F081000000409C45AB
:1014200000409CC50000C84270470000054A0029E2
:1014300003D0516901435161704751698143516142
:101440007047000000100240054A002903D0D1690E
:101450000143D1617047D1698143D1617047000078
:1014600000100240054A002903D0116901431161AF
:1014700070471169814311617047000000100240FC
:10148000054A002903D09169014391617047916930
:10149000814391617047000000100240054A002915
:1014A00003D0D1680143D1607047D1688143D160D6
:1014B000704700000010024010B5264A516801F044
:1014C0000C01254B002927D0042927D0082927D033
:1014D0000360516801F0F0010909204B5C5C016870
:1014E000E1404160546804F4E064240A1C5D21FA80
:1014F00004F48460546804F46054E40A1B5DD94029
:10150000C160526802F44042920B144B1B1F9A5C5C
:10151000B1FBF2F1016110BD0360DAE70360D8E7C7
:10152000516801F47011536803F48033022404EB12
:10153000914133B153689B0307D5094B594301606F
:10154000C7E7074B59430160C3E7034B59430160A9
:10155000BFE700000010024000127A0020000020C7
:1015600000093D000021022805D0032809D00428E5
:101570000CD0002070474FF08042B2F924009184D3
:101580007047054AB2F9000011807047034AB2F96A
:10159000000011807047000024040040240800402F
:1015A000704700F001B800000CB5002201920092D3
:1015B0002748016841F4803101604FF4A06301685D
:1015C00001F4003100910199491C0191009911B970
:1015D00001999942F3D10168890302D50121009153
:1015E00000E000920099012930D11A490A6842F0BE
:1015F00010020A600A6822F003020A600A6842F0D8
:1016000002020A604168416041684160416841F4FA
:1016100080614160416821F47C114160416841F47E
:10162000E8114160016841F0807101600168890141
:10163000FCD5416821F003014160416841F002019D
:1016400041604168C1F381010229FAD10CBD00005B
:10165000001002400020024030B5002802DD64285E
:1016600000DD64206FF06305002802DAA84200DA8A
:1016700028461B4C00220123002804DDC4F89421D5
:10168000C4F8903103E0C4F89431C4F8902103F019
:101690004DFF00EB800404EB8010124C20800029E9
:1016A00002DD642900DD6421002902DAA94200DAA2
:1016B00029460D48002904DDC0F89421C0F8903176
:1016C00003E0C0F89431C0F89021084603F02EFFE3
:1016D00000EB800101EB80100249091D088030BD3C
:1016E0000000214234040040000022424FF0E0217B
:1016F000042804D0086920F00400086170470869D4
:1017000040F00400086170477047000010B50F48B2
:10171000016841F00101016041680D4A11404160DA
:1017200001680C4A11400160016821F480210160C8
:10173000416821F4FE0141604FF41F018160FFF711
:1017400030FF05494FF00060086010BD00100240F6
:101750000000FFF8FFFFF6FE08ED00E070B5048C16
:1017600024F001040484058B048C25F0F3054FF666
:10177000FF7606EA031313432B43104A90420ED020
:101780000F4A90420BD0B0F1804F08D00D4A9042E2
:1017900005D00D4A904202D00C4A904205D124F067
:1017A00002020A4342F0010104E024F00A020A4363
:1017B00042F001010383018470BD0000002C014050
:1017C000003401400004004000080040000C0040CC
:1017D000F0B5048C24F010040484068B048C4FF6BE
:1017E000FF7505EA011726F4734605EA0333334310
:1017F00005EA02221A43104B98420ED00F4B984232
:101800000BD0B0F1804F08D00D4B984205D00D4B56
:10181000984202D00C4B984205D124F02001394364
:1018200041F0100104E024F0A0030B4343F0100149
:1018300002830184F0BD0000002C0140003401400F
:101840000004004000080040000C0040F0B5048C8B
:1018500024F480740484858B048C4FF6FF7707EAA8
:10186000012625F0F30507EA031313432B43104A1F
:1018700090420ED00F4A90420BD0B0F1804F08D06A
:101880000D4A904205D00D4A904202D00C4A904237
:1018900005D124F40071314341F4807104E024F453
:1018A00020620A4342F4807183830184F0BD00000A
:1018B000002C0140003401400004004000080040BA
:1018C000000C0040F0B5048C24F480540484868B12
:1018D000048C4FF6FF7505EA013726F4734605EAD6
:1018E0000222324305EA03331343104A90420ED0DA
:1018F0000F4A90420BD0B0F1804F08D00D4A904271
:1019000005D00D4A904202D00C4A904205D124F4F1
:101910000051394341F4805104E024F402420A4367
:1019200042F4805183830184F0BD0000002C01400B
:10193000003401400004004000080040000C00405A
:101940007FB504460D460121C802FFF799FD01212C
:101950000420FFF795FD174E304600F0B7F8ADF8BC
:101960000840ADF804500020ADF80A00ADF80600BC
:101970008DF80C0001A9304600F0F0FA0121304644
:1019800000F092F801221146304600F01BFA1920AF
:101990008DF8000003208DF8010001208DF8020071
:1019A0008DF803006846FFF7A1FC0121304600F0E6
:1019B00081F87FBD002C0140F0B587B0284C012193
:1019C000204600F0A4F9002847D00121204600F06D
:1019D0006EF8244C2088401C20800420FFF7C2FDB4
:1019E000214F38600220FFF7BDFD204D40422860A6
:1019F0001F4E3068416A006ACDE900011D480EC8DB
:101A000003A802F02DFADDE90301CDE905013868EC
:101A100004F016FE014605983268FFF7B9FC04F0A1
:101A2000D3FD154E3060286804F00AFE134A0146C3
:101A300006981268FFF7ACFC04F0C6FD1049086078
:101A400001463068FFF708FE02F07EF920880A2878
:101A500003D301F087FA0020208007B0F0BD00001A
:101A6000002C01404A000020640000206800002093
:101A70005C000020BC000020580000206000002016
:101A8000540000204FF08040018A018A21F00101BA
:101A90000182704703480188018821F0010101801B
:101AA0007047000010080040C94301827047C943D5
:101AB00001827047002904D0018841F001010180B2
:101AC0007047018821F001010180704710B573490A
:101AD00088420AD1C41401212046FFF7DFFC2046CA
:101AE000BDE810400021FFF7D9BCB0F1804F0CD009
:101AF0006B49884213D101210220FFF7B3FC00217A
:101B0000BDE810400220FFF7ADBC01210846FFF7F9
:101B1000A9FC0021BDE810400120FFF7A3BC6149EA
:101B2000884209D101210420FFF79CFC0021BDE877
:101B300010400420FFF796BC5B49884209D101217F
:101B40000820FFF78FFC0021BDE810400820FFF7B8
:101B500089BC5649884209D101211020FFF782FC37
:101B60000021BDE810401020FFF77CBC504988429E
:101B700009D101212020FFF775FC0021BDE81040AC
:101B80002020FFF76FBC4B4988420AD14414012141
:101B90002046FFF783FC2046BDE810400021FFF7F8
:101BA0007DBC454988420AD10121CC042046FFF77B
:101BB00075FC2046BDE810400021FFF76FBC3F498F
:101BC00088420AD101210C052046FFF767FC204618
:101BD000BDE810400021FFF761BC394988420AD1B5
:101BE00001214C052046FFF759FC2046BDE8104076
:101BF0000021FFF753BC3349884209D1012140201D
:101C0000FFF730FC0021BDE810404020FFF72ABC60
:101C10002D49884209D101218020FFF723FC0021B2
:101C2000BDE810408020FFF71DBC284988420AD13A
:101C3000841501212046FFF715FC2046BDE8104021
:101C40000021FFF70FBC224988420AD101210C0470
:101C50002046FFF723FC2046BDE810400021FFF797
:101C60001DBC1C4988420AD101214C042046FFF7C3
:101C700015FC2046BDE810400021FFF70FBC1649B7
:101C800088420AD101218C042046FFF707FC204638
:101C9000BDE810400021FFF701BC10BD002C014041
:101CA0000004004000080040000C0040001000400C
:101CB0000014004000340140004C0140005001403D
:101CC0000054014000180040001C0040002000406B
:101CD00000400140004401400048014070B50589C2
:101CE000048B068C25F007050D434FF6FC410C4094
:101CF00040F201110C4326F022064FF6FF7101EA73
:101D000003111143314305810483018470BD0246F0
:101D10000020138A0B4092890A40002B02D0002A2F
:101D200000D001207047000070B505460C461D48E4
:101D3000854209D01C48854206D0B5F1804F03D0BA
:101D40001A48854200D01A4820886188A2882389D1
:101D500060B1042813D008281AD02846FFF7B2FD36
:101D6000E1882846BDE8704000F0ECB82846FFF74F
:101D7000F5FCE1882846BDE8704000F0C7B8284669
:101D8000FFF726FDE1882846BDE8704000F0C6B8A0
:101D90002846FFF75BFDE1882846BDE8704000F06B
:101DA000C9B80000002C014000340140000400408C
:101DB0000008004000210180418001228280C18012
:101DC00001817047002A03D082890A4382817047CB
:101DD00082898A438281704730B5028C22F00102E9
:101DE0000284028C8388048B24F0700424F00305A1
:101DF0000C882C4322F002020D8915434A882A439D
:101E0000124DA8420BD0124DA84208D0114DA84245
:101E100005D0114DA84202D0104DA8420FD122F09A
:101E200008054A892A4322F004058A882A4323F4B4
:101E3000807323F400738D891D43CB892B438380EA
:101E40000483C9888186028430BD0000002C0140D3
:101E5000003401400040014000440140004801407E
:101E6000028B22F008020A430283704770B5028C8D
:101E700022F010020284028C8388048B24F4E04454
:101E800024F440760D884FF6FF7404EA05253543A7
:101E900022F020020E8904EA061616434A8804EA54
:101EA00002123243114EB04202D0114EB04217D14D
:101EB00022F080024E8904EA0616164326F04006F8
:101EC0008A8804EA0212324323F4806323F4006315
:101ED0008E8904EA86061E43CB8904EA83033343D2
:101EE00083800583C9880187028470BD002C01406E
:101EF00000340140028B22F400624FF6FF7303EAC4
:101F0000012111430183704781847047028B22F0C5
:101F10000C020283028B0A4302837047028B22F475
:101F200040620283028B4FF6FF7303EA01210A43EA
:101F300002837047828B22F00C028283828B0A43D9
:101F400082837047828B22F440628283828B4FF6B9
:101F5000FF7303EA01210A438283704730B5028888
:101F60001B4C1C4DA0420DD0A8420BD0B0F1804FAD
:101F700008D0194B984205D0184B984202D0184B04
:101F8000984203D122F070034A881A43154B9842B5
:101F900006D0154B984203D022F44073CA881A43E6
:101FA00002808A8882850A880285A0420AD0A842D7
:101FB00008D00E4A904205D00D4A904202D00D4AF8
:101FC000904201D1097A01860121818230BD000051
:101FD000002C014000340140000400400008004093
:101FE000000C004000100040001400400040014080
:101FF00000440140004801404FF6FF7181800021FC
:102000000180C180418001727047000070B50E4CA4
:1020100040F225552946204600F02EF8002811D020
:10202000204600F0C3F8C0B2FF280BD101224021A6
:10203000204600F017F829462046BDE870400022EF
:1020400000F03AB870BD000000380140002904D00B
:10205000818941F4005181817047818921F40051C7
:1020600081817047002A03D0828A0A4382827047A6
:10207000828A8A438282704770B5002440F66A12D1
:10208000C1F3421301F01F05012606FA05F2012BE8
:102090000CD0022B0DD0838A1340090A8E40008891
:1020A00030400BB100B10124204670BD838913403C
:1020B000F3E7038A1340F0E710B540F66A13C1F363
:1020C000421301F01F040121A140012B07D0022B74
:1020D00007D014303AB102680A43026010BD0C30D8
:1020E000F8E71030F6E702688A43026010BD00008E
:1020F00030B585B004460D46208A4CF6FF71084085
:10210000E98801432182A0894EF6F3110840A9888D
:102110002A8911436A8902431143A181A08A4FF69B
:10212000FF410840A9890143A1826846FFF7C4F92D
:102130001D48844201D1039800E00298A189090456
:1021400008D500EBC00101EB001029684900B0FB85
:10215000F1F007E000EBC00101EB001029688900F5
:10216000B0FBF1F06422B0FBF2F109010B096FF052
:1021700018056B4300EB8300A3891D044FF0320365
:1021800007D503EBC000B0FBF2F000F007000843F6
:1021900006E003EB0010B0FBF2F000F00F00084384
:1021A000208105B030BD0000003801408088C0F3B8
:1021B00008007047FEE7490050EAC12018BF04201C
:1021C0004A0D18BF40F0010040F2FF72B2EB515FC0
:1021D00008BF40F00200012808BF0520704700003A
:1021E0002DE9F74F144694B00021C4E90211159966
:1021F000079121F00045C9498D4206DC1599C4E9D3
:10220000000117B00020BDE8F08FC549DFF814A326
:10221000A9423CDD0799C44E0029C44FC44A159910
:10222000534619DD03F050FF554506D0C14AC24B55
:1022300003F04AFFC4E900010AE04FF0D352BE4B5D
:1022400003F042FF32463B4603F03EFFC4E9000183
:1022500017B00120BDE8F08F03F0E4FA554506D031
:10226000B44AB54B03F0DEFAC4E900010AE04FF0CE
:10227000D352B14B03F0D6FA32463B4603F0D2FAC2
:10228000C4E9000117B04FF0FF30BDE8F08FAB4953
:10229000A942159978DB21F0004183468846A84A77
:1022A000A84B03F021FD0022A74B03F0BBFA03F07B
:1022B000C1FC099003F0EDFC06460F469C4A5346CC
:1022C00003F012FD43465A4603F00CFE80468A4650
:1022D000984A994B3046394603F006FD2A0D0125F0
:1022E0000B924246534603F0FDFD032DC4E9000165
:1022F00039D00B98C1F30A51401A05EB4511113939
:10230000814230DA9148C346784400EB0510CDF89D
:102310000CA00C90D0E900233046394603F0E4FCD1
:1023200002460B46049106905846039903F0CCFEF2
:1023300080468A4602460B465846039903F0C4FE7F
:10234000049B069A03F0C0FE83460C98039139461D
:10235000D0E90223304603F0C7FC5A46039B03F042
:10236000B3FE6D1CBDE707980028A2BF099817B0FF
:10237000BDE8F08F616881F000416160099817B095
:102380004042BDE8F08FFFE784461598C1F3130182
:10239000C0F30A50A0F2F5304FEA601800F01F06B3
:1023A000C6F12000139000200690079041F4801E93
:1023B00005206D4676B1664A08EB00017A4452F872
:1023C000213002EB8101B3404A68139922FA01F1EE
:1023D000194305E05F4908EB0002794451F82210E7
:1023E000A1FB0E27A1FB0C131A449A4234BF012310
:1023F000002303EB070A05EB8003D3E901B70F4481
:102400008F4234BF0121002193448B4411B1934585
:1024100002D903E0934501D2012100E00021C3E984
:1024200001B7514445F82010011EA0F10100C1DCA4
:102430000298059F00F10050800F12900298DDE98C
:102440000356800003F025FC834628460D9103F0D7
:1024500037FC6FF01D0204F0F8FACDE90E013046AA
:1024600003F02EFC6FF03D0204F0EFFA80468A463E
:10247000384603F025FC6FF05D0204F0E6FA0746EB
:1024800042465346119103F0CDF9DDE90E2303F0E6
:10249000C9F95A460D9B03F0C5F900250E465A4668
:1024A00028460D9B03F010FEDDE90E2303F00CFE21
:1024B0004246534603F008FE3A46119B03F012FDD4
:1024C000DFF898A0244A534603F00EFC07468846DE
:1024D000234A244B3146284603F006FC3A4643463D
:1024E00003F0A0F9074688464FF0A842534631460C
:1024F000284603F0F9FB3A46434603F093F9159A50
:1025000012F0004F04D0129A81F000415242129210
:10251000C4E90001129817B0BDE8F08FFB21E93F34
:102520007CD90240FB21F93F7370032E8A19A33B2B
:10253000000040543163621A61B4D03DFB2139413F
:1025400083C8C96D305FE43F0000E03F9455000050
:1025500010550000F2540000182D4454FB21F93DA1
:102560003326A611460B113C2DE9FF4D21F0004802
:1025700007460C46B8F1795F08DA03F05BFB0028E8
:1025800001BF0020324904B0BDE8F08D3A46234631
:102590001046194603F0A8FB054602462D480E4694
:1025A0000B460621784400F05DF82A46334603F0D6
:1025B0009BFBDDE9022382468B463846214603F029
:1025C00093FB04460F4652465B462846314603F0CD
:1025D0008BFB22463B4603F077FD07468A464FF0C9
:1025E000FF322846314604F030FA1B4A90450ADA99
:1025F0003A46534603F068FD04B00022BDE8F04DB2
:10260000134B03F06FBC154A4245A8BFA8F500154F
:102610004FF00004B8BF124D22462B4603F054FD84
:102620000646884622462B460020094903F04CFD09
:1026300004460D463A4653463046414603F044FDB3
:1026400004B022462B46BDE8F04D03F04BBC000021
:102650000000F03FC05200003333D33F0000E93F99
:102660000000D23F2DE9F0414F1E00EBC7010446A8
:10267000D1E9000115461E4637F006020DD02A4664
:10268000334603F031FB7F1E04EBC703D3E900237D
:1026900003F0C8F837F00602F1D1022F25D0042F3D
:1026A00013D0062F18BFBDE8F0812A46334603F049
:1026B0001BFBD4E90A2303F0B5F82A46334603F09E
:1026C00013FBD4E9082303F0ADF82A46334603F0A0
:1026D0000BFBD4E9062303F0A5F82A46334603F0A2
:1026E00003FBD4E9042303F09DF82A46334603F0A4
:1026F000FBFAD4E9022303F095F82A46334603F0A7
:10270000F3FAD4E90023BDE8F04103F08BB80000F0
:102710002DE9FF4D054621F0004084B00C46B0F194
:10272000795F0BDA2846FFF746FD042808BF00F062
:1027300071F8284608B02146BDE8F08D2A460B46C0
:10274000104603F0D1FA06460F462A46234603F008
:10275000CBFA804626488A4632463B4605217844D5
:10276000FFF780FF83461098029160B3214A224B05
:102770004046514603F0B8FACDE900015A464046BA
:102780005146029B03F0B0FA82468846DDE9060115
:102790004FF0FF3204F059F95246434603F094FCDF
:1027A00032463B4603F0A0FADDE9062303F08CFC39
:1027B000DDE9002303F088FC08B02A462346BDE883
:1027C000F04D03F08FBB0B465A463046394603F0B6
:1027D0008BFA084A084B03F025F84246534603F0AB
:1027E00083FA08B02A462346BDE8F04D03F01AB834
:1027F00006520000495555555555C5BF012204F0F4
:1028000024B903F00FB8002213461046114603F016
:10281000B9B80000024A0020110704F016B9000000
:1028200001FDFFFF30380A2801D201207047002047
:10283000704770472DE9FE4F0746884600256846D9
:1028400001F0E6F900246FF00F0AE946012657F877
:10285000240058F82410401A00D5404203F0F0FE3E
:10286000514604F020F959F8241011F0FF4F0ED012
:1028700003F0B4FD4FF07E5104F040F80B4920F016
:10288000004088420BDD06FA04F0054307E00849E2
:1028900008440849884202D306FA04F00543641C40
:1028A000032CD4DB2846BDE8FE8F0000295C0F3ED8
:1028B000666666C19A99D9002DE9F04D8D4F21F0D9
:1028C000004A86B005460C46BA452ADBAAEB07004B
:1028D00028430AD08848824501DC1AD1CDB106B020
:1028E0002846BDE8F04DFFF789BF844A844B28464F
:1028F00003F0FAF907460E46824A834B28462146E2
:1029000003F0F2F906B03A463346BDE8F04D02F066
:1029100089BF0120FDF763FE06B0BDE8F04DFFF76B
:1029200072BF7A48824542DABAF1795F0BDA2846FB
:10293000FFF741FC042808BFFFF76CFF284606B0EC
:102940002146BDE8F08D2A460B46104603F0CCF92F
:10295000834602466E480E460B4606217844FFF732
:1029600081FE5A46334603F0BFF9804669488A46DD
:102970005A46334604217844FFF774FE5A463346DC
:1029800003F0B2F900223B4602F04CFF02460B4630
:102990004046514602F0F6FF2A46234603F0A4F9CA
:1029A00006B02A462346BDE8F04D02F03BBF28465C
:1029B00024F0004100223D463B4603F093FA4FF0DD
:1029C000FF3204F042F80646024653480F460B46D3
:1029D00006217844FFF746FE32463B4603F084F971
:1029E000CDE900014D4832463B4604217844FFF7CB
:1029F00039FE32463B4603F077F900222B4602F0BF
:102A000011FF834602913046394602F05DFE804652
:102A100043480D46504517DCDDE900015A46029B4C
:102A200002F0B0FF42462B4603F05EF942462B46C9
:102A300002F0F8FE012204F008F8304A304B03F0AF
:102A400043FB304A304B4CE04FF0000A52460B46F5
:102A5000404602F0E7FECDE9031052462B461046F1
:102A6000194603F041F932463B4603F03BFADDE9F3
:102A7000033202F087FF06460F46DDE900015A46A1
:102A8000029B02F07FFF83460091012230463946C7
:102A900003F0DBFF194A1A4B03F024FA06460F46EF
:102AA00001224046294603F0D0FF5A46009B03F01E
:102AB0001BF932463B4603F007FB06460F46012250
:102AC0005046294603F0C1FF0E4DDFF858802A46D4
:102AD000434603F007FA32463B4603F003FA2A4620
:102AE000434603F0FFF9002CD8BF81F0004106B047
:102AF000BDE8F08D0000F03F0000F07F075C14336C
:102B000026A6913C182D4454FB21F93F0000E03FDC
:102B1000204E0000364E0000AA4D0000C04D0000BF
:102B20003333EF3FFB21E93F2DE9F84F04460D46D3
:102B300021F0004000917349814211DC72498842C2
:102B400001DC06D12CB120462946BDE8F84FFFF73D
:102B500055BE6E48002DCCBF6D496E49BDE8F88F5B
:102B60006D49814211DD6D498142D8BF4FF0FF367A
:102B70006DDD20462946FFF71EFB042808BFFFF73E
:102B800049FE20462946BDE8F88F6549654F25F086
:102B90000045814233DD6449814219DD0026324619
:102BA0004FF080432046294602F03CFE80468A468C
:102BB00001222046294603F048FF00223B4603F04D
:102BC00083FA4246534602F0DDFE04460D463EE0DF
:102BD00001260022BA463B462046294602F022FE44
:102BE00080460F46002253462046294603F06CFAE1
:102BF00042463B4602F0C6FE04460D4627E04B49DE
:102C000081421BDDDFF828A1022600225346204620
:102C1000294603F069F800223B4602F003FE804695
:102C20000F46002253462046294603F04DFA4246FD
:102C30003B4602F0A7FE04460D4608E00326224666
:102C40002B4600203B4902F09DFE04460D462246DD
:102C50002B461046194603F047F88B46824602463B
:102C60000B4603F041F807460246334888460B46B8
:102C700006217844FFF7F6FC52465B4603F034F831
:102C800082462E488B463A46434605217844FFF754
:102C9000E9FC3A46434603F027F802460B46002E6D
:102CA000504659460CDA02F0BDFD22462B4603F091
:102CB0001BF801B022462B46BDE8F04F03F012B9D5
:102CC00002F0B0FD22462B4603F00EF81C4A7A446F
:102CD00002EBC603D3E9002303F0F6F922462B46A4
:102CE00003F0F2F9174A7A4402EBC603D3E9002352
:102CF00003F0F8F8009A002AB8BF81F00041BDE85F
:102D0000F88F0000000010440000F07F182D44549C
:102D1000FB21F93FFB21F9BF0000DC3F0000203E12
:102D20000000F33F0000F03F0000E63F008003405A
:102D30000000F83F0000F0BFC24B0000804B0000D5
:102D40001E4B0000E64A00002DE9F04D9446CCF100
:102D5000000423F000464CEA0404524F46EAD474BF
:102D60009A46884621F00042BC4206D8454240EAD5
:102D7000050442EAD474BC4204D9BDE8F04D624671
:102D8000FFF73FBDAAF14055A5F17F6555EA0C0458
:102D90000BD0022404EAAA74434DDFF810E144EAA0
:102DA000D87452EA000B04D00CE0BDE8F04DFFF7F8
:102DB000BBBE002C14BF012CBDE8F08D022C30D01E
:102DC000032C32D056EA0C0B0AD0BE4220D1BA42B4
:102DD00009D126F0804622F080423346114617E0A2
:102DE00000291ADB25E0DFF8C8B0FB44002C04BF43
:102DF000DBE90001BDE8F08D012C02BFDBE9000139
:102E000081F00041BDE8F08D022C0AD0032C0CD0DB
:102E1000BA4212D1B8F1000F0BDA23482549BDE8B8
:102E2000F08D28462449BDE8F08D28467146BDE85E
:102E3000F08D1D482149BDE8F08D921B12153C2AEA
:102E4000C4BF19481D490EDCBAF1000FBEBF12F114
:102E50003C0F0020014606DB624602F093FD21F0A4
:102E60000041FFF761FE002C08BFBDE8F08D012C8A
:102E700004BF81F00041BDE8F08D114A114B022CD6
:102E800007D003F021F92A46BDE8F04D0A4B03F0C4
:102E90001BB903F019F92A46BDE8F04D064B03F0C3
:102EA00021B800000000F07F182D4454FB2109C018
:102EB000AA4A0000FB21F9BFFB210940FB21F93F91
:102EC000075C143326A6A13C00B5244B21F0004238
:102ED00087B09A42DCBF0022134629DD204B9A427C
:102EE00008D140B94FF00100FDF779FBFFF78BFCEB
:102EF00007B000BD03DBFFF781FC07B000BD02AAED
:102F0000FFF76EF910F0030104BF0DF1080C9CE807
:102F10000F000DD0012001290ED0022914D00DF18F
:102F2000080C00909CE80F00FFF7F2FB07B000BD13
:102F3000FFF71AFB07B000BD0DF1080C00909CE8EC
:102F40000F00FFF7E5FB05E00DF1080C9CE80F0012
:102F5000FFF70AFB07B081F0004100BDFB21E93F0C
:102F60000000F07F2DE9F04F8BB04E4D4E4CA8681D
:102F70002060E8686060696828680E46074603F0CC
:102F8000B9F94FF0FF3103F08EFDA0600020E06042
:102F90003946304603F0B2FC03F080F9434A444B13
:102FA00002F0F0FC02F00CFC20612869606104F181
:102FB0002400AA2101704170227882706378C37066
:102FC000A17801710A91E5784571217981710991A2
:102FD0006179C1710891A6790672E779477294F810
:102FE00008C080F80AC094F8098080F80B8094F833
:102FF0000A9080F80C90E17A4173079194F80CA044
:1030000080F80EA0617BC1730691A17B01740591CC
:10301000E17B41740491217C81740391617CC174D2
:10302000029194F812B080F814B0E17C41750191DE
:10303000217D8175009194F815E080F817E0A17D5D
:103040000176E47D44765A400A9B6B405A40099BC6
:103050005A40089B5A4072407A4082EA0C0282EA47
:103060000802079B82EA09025A40069B82EA0A028A
:103070005A40059B5A40049B5A40039B5A40029B6E
:103080005A40019B82EA0B025A40009B5A4082EA56
:103090000E024A40624082760BB00648BDE8F04F0F
:1030A000FDF7A3BC30000020A40000209A99999954
:1030B0009999C93F4400024070B50446E07800F099
:1030C000C00500F03F006178094EC90707D0C3086A
:1030D00000F00701491C32680AB118469047607831
:1030E000000703D5716809B1A8098847002070BDA1
:1030F0009401002010B56FF00400FEF7F7FA0948BC
:1031000009490068B0FBF1F00849C0B2087000EB53
:103110004002C2EBC0104FF6FF7202EAC0004880C6
:1031200010BD00000000002000127A0014000020F2
:103130000B49498848434FF0E021486100238B61E7
:10314000086940F0010008610869C20701D0C003A6
:10315000FAD5086920F0010008618B617047000012
:10316000140000200B49097848434FF0E0214861E2
:1031700000238B61086940F0010008610869C207FB
:1031800001D0C003FAD5086920F0010008618B6105
:10319000704700001400002008B500280CD0202043
:1031A0008DF8000028208DF8010030208DF80200F5
:1031B00038208DF8030004E0A32204216846FDF7BF
:1031C0005FF96A46042140F69E2002F077F901F08B
:1031D000FBFD08BD3EB5044602208DF80000CA2064
:1031E0008DF80100E3208DF8020009208DF803001E
:1031F0006A460421682002F061F9A3208DF80000DE
:10320000610609D5C0218DF80110C8218DF8021082
:10321000C2218DF8031005E08DF801008DF8020041
:103220008DF8030014F4C07F09D0C4218DF8041078
:10323000CC218DF80510C6218DF8061005E08DF81B
:1032400004008DF805008DF806008DF807008DF854
:1032500008008DF809006A460A2140F6A72002F00E
:103260002DF9A0074FF0D80503D020208DF80000DD
:1032700001E08DF800506A46012140F6B62002F0C8
:103280001DF9A00603D5012000F09AF802E0002005
:1032900000F096F814F4C07F20D0E0050CD5B220E1
:1032A0008DF800008B208DF80100B6208DF802000B
:1032B0009B208DF803000BE0B0208DF800008020EB
:1032C0008DF80100B4208DF8020090208DF80300E5
:1032D0006A46042140F6A22002F0F0F8E0074FF41D
:1032E0000B6323D0F8208DF800006A4601211846B0
:1032F00002F0E4F8FA21072000F0ACFB072000F010
:103300007BFB012000F094FB642000F055FC4FF49F
:10331000FA7000F061FCC821274800F035FB282036
:1033200000F04AFB0A2000F057FB06E08DF8005041
:103330006A460121184602F0C1F8A00703D5D9203A
:103340008DF8000001E08DF800506A46012140F23E
:103350003D7002F0B3F8600703D5012000F05CF87F
:1033600002E0002000F058F8E00603D50120FFF746
:1033700013FF02E00020FFF70FFF104D44F008009C
:10338000688101F021FD0020A873600601D50620A8
:10339000A87314F4C07F02D0A87B801DA87314F01A
:1033A000140F02D0A87B1030A873A00702D0A87B0E
:1033B000001DA87300203EBD09E3CA02940100204D
:1033C0000EB54FF4976300280CD00DA0D0E9001281
:1033D0008068CDE9001202906A460921184602F081
:1033E0006DF80EBD09A0D0E900128068CDE9001289
:1033F00002906A460921184602F060F80EBD0000EE
:10340000B8AAB38DB4980D355D000000B8AAAAAA79
:10341000B088C3C5C700000008B500280CD0C02084
:103420008DF80000C2208DF80100C4208DF8020044
:10343000C6208DF8030004E08B2204216846FDF7C6
:103440001FF86A46042140F6982002F037F801F090
:10345000BBFC08BDC8234FF48062024940F6F63039
:1034600001F062BB746B00082DE9FF4F8DB016466A
:10347000DDE91A52074688460024A146A5F80090C7
:10348000DFF864B105A99BF80E0001F00FFC4FF0C6
:10349000FF3A18B1504611B0BDE8F08FBBF80A30C2
:1034A00013F0140F61D09DF817009DF814109DF8CB
:1034B000162040EA01609DF81510090441EA022136
:1034C000084330609DF81B109DF818209DF81A40A5
:1034D00041EA02619DF81920120442EA04221143D4
:1034E00071609DF81F209DF81C409DF81EC042EAA7
:1034F00004629DF81D40240444EA0C242243B26077
:103500009DF823409DF820C09DF822B044EA0C6C41
:103510009DF82140240444EA0B244CEA040CC6F82C
:103520000CC0102400140190081402901014039091
:103530004FEA2C40049001980299404301FB01019D
:103540000398049A404302FB02000844A0F1706013
:10355000B0F1007F05D901F037FCA5F80090504686
:1035600099E7288840F480702880590605A818D566
:103570000219065D517841EA0621A8F80010D178B9
:10358000967841EA0621A8F802105179127941EAA9
:103590000221A8F80410A41DE4B2298841F0080112
:1035A000298013F4C07F15D00119065D4A7842EADC
:1035B00006223A80CA788E7842EA06227A804A79D0
:1035C000097942EA0121B980A41DE4B2298841F0B9
:1035D00070012980990702D02044FFF76DFD1098F3
:1035E00000F0CCFF002056E79401002030B587B0F2
:1035F0000446684601F020F9BDF80000420CC10302
:103600003C48038903F0030054F820000490580755
:1036100002D5049840420490C3F3C10054F820003E
:103620000590980602D5059840420590C3F3811095
:1036300054F820000690D80502D50698404206901E
:103640000498A0FB0145C31703FB015300FB0230A4
:10365000830043EA947004900598A0FB0145C317CA
:1036600003FB015300FB0230830043EA9470059092
:103670000698A0FB0145C31703FB015100FB021094
:10368000810041EA947006900498000E8DF80400C1
:103690000498000C8DF805000498000A8DF80600C7
:1036A00004988DF807000598000E8DF8080005981D
:1036B000000C8DF809000598000A8DF80A0005989D
:1036C0008DF80B000698000E8DF80C000698000C83
:1036D0008DF80D000698000A8DF80E0006988DF8FA
:1036E0000F0001AA0C214FF4257001F0E7FE07B08E
:1036F00030BD00009401002030B585B0044616A10D
:10370000D1E900028968CDE9032102904FF0FF352D
:10371000C82C02D9284605B030BDC820B0FBF4F152
:10372000491E080A8DF800008DF801106A46022132
:1037300040F2162001F0C2FE08B12846EBE702AACB
:103740000C2140F6C12001F0B9FE08B12846E2E79D
:10375000044884810020DEE7FEF2ABC4AAF1DFDF7B
:10376000BBAFDFDF940100201FB53F49098901F09D
:10377000030250F8222001924A0702D5019A5242D0
:103780000192C1F3C10250F8222002928A0602D5AA
:10379000029A52420292C1F3811250F82200039021
:1037A000C80502D50398404203903048019981FB37
:1037B00000218B0043EA92710191029981FB002163
:1037C0008B0043EA92710291039981FB0001800F03
:1037D00040EA810003900198000E8DF800000198E6
:1037E000000C8DF801000198000A8DF80200019884
:1037F0008DF803006A4604214FF4747001F05EFEF8
:103800004FF0FF3410B1204604B010BD0298000EF6
:103810008DF800000298000C8DF801000298000A53
:103820008DF8020002988DF803006A4604214FF4D7
:10383000757001F043FE08B12046E5E70398000EDD
:103840008DF800000398000C8DF801000398000A21
:103850008DF8020003988DF803006A4604214FF4A6
:10386000767001F02BFECFE79401002009E3CA0235
:1038700030B587B004463FA0006804903EA00068C1
:1038800003903EA0006802903DA00068019004F003
:10389000030004AB195C8DF81810C4F3C102995CE5
:1038A0008DF81910C4F381115B5C8DF81A3003ABED
:1038B000185C8DF81400985C8DF81500585C8DF834
:1038C000160006AA032140F2264001F0F7FD4FF052
:1038D000FF3510B1284607B030BD05AA032140F2DC
:1038E0002A4001F0EBFD08B12846F4E70298069063
:1038F0000198059060070BD59DF8180040F0010075
:103900008DF818009DF8140040F001008DF81400A7
:10391000A0060BD59DF8190040F001008DF81900A4
:103920009DF8150040F001008DF81500E0050BD55D
:103930009DF81A0040F001008DF81A009DF816005D
:1039400040F001008DF8160006AA03214FF48860AC
:1039500001F0B4FD08B12846BDE705AA032140F2F5
:10396000314001F0ABFD08B12846B4E705480481B9
:103970000020B0E74CCD6C000CC92C003656760008
:10398000264666009401002008B54FF47A7290FB39
:10399000F2F04843010E8DF80010010C8DF8011073
:1039A000010A8DF802108DF803006A4604214FF4D5
:1039B000AE7001F083FD08BD08B50521B0FBF1F044
:1039C000010A8DF800108DF801006A4602214FF4BB
:1039D000AD7001F073FD08BD08B50521B0FBF1F035
:1039E000010A8DF800108DF801006A4602214FF49B
:1039F000AC7001F063FD08BD08B500210091C1075E
:103A000001D030210091810704D59DF8001041F0CC
:103A10000C010091400704D59DF8000040F0030020
:103A200000906A4601214FF4A47001F047FD08BDE3
:103A300008B500280BD0042800D90420401E0090AF
:103A40006A46012140F24F1001F038FD08BD012007
:103A5000F4E700002DE9FC410546084669074FF0F0
:103A6000FF3602D0B0F5C86F02D93046BDE8FC8100
:103A700002F0FEFD4B4902F0B1FC0746684600F03B
:103A8000B9FE9DF80000022807D0042814D00828A9
:103A900021D010282ED03046E8E70E21384603F01A
:103AA00002F802F0ADFD84B23F49384602F028FE2C
:103AB00002F0A6FD80B22BE00D21384602F0F3FFA4
:103AC00002F09EFD84B23949384602F019FE02F038
:103AD00097FD80B21CE00C21384602F0E4FF02F0B2
:103AE0008FFD84B23249384602F00AFE02F088FDAA
:103AF00080B20DE00B21384602F0D5FF02F080FDC8
:103B000084B22C49384602F0FBFD02F079FD80B208
:103B1000210A8DF804108DF80540010A8DF8061071
:103B20008DF80700E80701AC11D001AA02214FF47B
:103B3000EA7001F0C3FC08B1304697E7A21C0221ED
:103B40004FF4927001F0BAFC08B130468EE7A80736
:103B500011D501AA02214FF4EC7001F0AFFC08B1BD
:103B6000304683E7A21C02214FF4947001F0A6FCBA
:103B700008B130467AE7680711D501AA02214FF44F
:103B8000EE7001F09BFC08B130466FE7A21C0221E9
:103B90004FF4967001F092FC08B1304666E70020C1
:103BA00064E7000000004843000040460000C045B4
:103BB000000040450000C04408B50521B0FBF1F00D
:103BC000010A8DF800108DF801006A4602214FF4B9
:103BD000EF7001F073FC08BD08B50521B0FBF1F0F2
:103BE000010A8DF800108DF801006A4602214FF499
:103BF000ED7001F063FC08BD04490A885206FCD54B
:103C0000024AC1B2121D1180704700000038014005
:103C10002DE9FC410546264801AB042240680D21F0
:103C20000078FDF77AFA10B10720BDE8FC819DF815
:103C300007009DF80420C0F3011102F0E00241EA00
:103C4000D2018DF800109DF80520C0F3810102F02B
:103C5000E00241EAD2018DF801109DF8061000F053
:103C6000030001F0E00140EAD1008DF802000024D9
:103C70006E46305D20B10F4845F824000E4F0AE033
:103C8000002045F824000CE055F82400394602F0E5
:103C900037FD45F82400305D401E10F0FF00305520
:103CA000F2D1641CE4B2032CE3D30020BDE7000092
:103CB0006C0000207B14AE3E1D5A843F10B5017885
:103CC000FF24FF2901D0204610BD41788278037976
:103CD0005140C2785A4051404279037B5140827929
:103CE0005140C2795140027A5140427A5140827A21
:103CF0005140C27A5140594049B290F90D208A4250
:103D000001D0204610BD0F4900228A61CA610A62B3
:103D1000183144780C7084784C70C4788C700479B5
:103D2000CC7044790C7184794C71C4798C71047AAB
:103D3000CC71447A0C72847A4C72C07A8872CB72DD
:103D4000104610BDA40000202DE9F0473C48006853
:103D5000054601F09EFF3B4C3B4E2246334601F0A8
:103D6000C3FF01F02DFD074638480068814601F089
:103D700090FF2246334601F0B7FF01F021FD0146D6
:103D8000384602F0B7FA4FF0FF3102F08CFE0746DA
:103D90006420684301F07DFF2D4C2E4D22462B46BA
:103DA00001F0A2FFDFF8B0800022434601F0EAFDF7
:103DB00001F006FD294E3060642009FB00F001F09F
:103DC00068FF22462B4601F08FFF0022434601F098
:103DD000D9FD01F0F5FC7060306902F05FFAFFF781
:103DE00073F804460D46384602F058FA88460746EE
:103DF00022462B4601F078FF04460D46B06802F0DB
:103E00004DFA22462B4601F00DFD01F0D9FCB060C1
:103E1000306902F043FA01F007FC3A46434601F0EC
:103E200063FF04460D46F06802F038FA22462B463E
:103E300001F0F8FC01F0C4FCF060BDE8F087000080
:103E4000640000201DF8D369168D093F680000202A
:103E500033DBA3A47876C33F0060A8403000002085
:103E60002DE9FF4F83B08346DDF840A0069802F0AD
:103E700015FA3B4A3B4B01F037FF0646044688469D
:103E80000D46049802F00AFA8946074622462B4658
:103E900002F01AF901F094FC0446324643463846D3
:103EA000494601F0BFFC01F08BFC05462E4E204632
:103EB000314602F025FC02F0F1F92C4C2C4F224641
:103EC0003B4601F05FFD01F07BFC01903146284646
:103ED00002F016FC02F0E2F922463B4601F052FDE8
:103EE00001F06EFC029001984FF40005A84208DB37
:103EF000504602F0A5FB0446019902F0CDFB00D22A
:103F000001941C4E0198CAF10004B04208D3204627
:103F100002F096FB0746019902F0BEFC00D2019721
:103F20000298A84208DB504602F08AFB0546029937
:103F300002F0B2FB00D202950298B04208D32046AC
:103F400002F07EFB0446029902F0A6FC00D2029425
:103F5000DDE90101CBE9000107B0BDE8F08F000009
:103F60009A9999999999B93F0000434580064081F3
:103F70001C692E40000080802DE9F04788B005467E
:103F80000C46924601208DF8140000278DF815701C
:103F9000DFF8B88305AB0222D8F80000817CD8F89E
:103FA00004000078FDF74BF94FF0FF3918B148468F
:103FB00008B0BDE8F087C820FFF7BAF88DF8147094
:103FC000D8F8000005AB0122C17BD8F804000078C6
:103FD000FDF735F908B14846EAE7D8F8000005AB27
:103FE00001224179D8F804000078FDF728F908B1DA
:103FF0004846DDE7D8F8000005AB0122817CD8F8FF
:1040000004000078FDF71BF908B14846D0E7D8F85E
:10401000000005AB0122C17DD8F804000078FDF74F
:104020000EF908B14846C3E7D8F8000005AB0122F5
:104030000179D8F804000078FDF701F908B1484685
:10404000B6E70C268DF81460D8F8000005AB012205
:104050000179D8F804000078FDF7F1F808B1484676
:10406000A6E70F20FFF764F8D8F82800407A8DF80B
:104070001400D8F8000005AB01228178D8F80400BC
:104080000078FDF7DCF808B1484691E7D8F8280039
:10409000007A8DF81400D8F8000005AB01224178B1
:1040A000D8F804000078FDF7CAF808B148467FE761
:1040B000BAF1000F07D0D8F82800807A40F0E0006D
:1040C0008DF8140004E0D8F82800807A8DF81400E8
:1040D000D8F8000005AB01228179D8F804000078F7
:1040E000FDF7ADF808B1484662E7BAF1000F07D016
:1040F000D8F82800C07A40F0E0008DF8140002E003
:1041000018208DF81400D8F8000005AB0122C17901
:10411000D8F804000078FDF792F808B1484647E760
:10412000BAF1000F02D0C820FFF702F840208DF846
:104130001400D8F8000005AB01220179D8F804007A
:104140000078FDF77CF808B1484631E778208DF813
:104150001400D8F8000005AB01224179D8F804001A
:104160000078FDF76CF808B1484621E73220FEF7E9
:10417000DFFF8DF81470D8F8000005AB01224179FB
:10418000D8F804000078FDF75AF808B148460FE760
:10419000D8F8000005AB0222817AD8F80400007834
:1041A000FCF7BBFF08B1484602E79DF815009DF8F3
:1041B000141040EA0120B0FBF6F0C6B2AF606F60A9
:1041C0002F60A76067602760002756E0D8F80000DE
:1041D00005AB0C22C17AD8F804000078FCF79DFFEB
:1041E00008B14846E4E69DF815009DF8141040EA31
:1041F000012002B2ADF80C209DF817009DF81610B2
:1042000040EA012000B2ADF80E009DF819109DF8AB
:10421000183041EA032109B2ADF8101023681A449E
:104220002260626810446060A0680844A0609DF845
:104230001B009DF81A1040EA012000B2ADF80400FE
:104240009DF81D109DF81C2041EA022109B2ADF82D
:1042500006109DF81F209DF81E3042EA032212B27C
:10426000ADF808202B681844286068680844686026
:10427000A8681044A8607F1CFFB2B742A6D3286884
:104280008322C117090441EA104100040023FBF70F
:10429000C2FF32460023FBF7BEFF28606868832216
:1042A000C117090441EA104100040023FBF7B3FFE2
:1042B00032460023FBF7AFFF6860A8688322C1176E
:1042C000090441EA104100040023FBF7A4FF324631
:1042D0000023FBF7A0FFA86020684FF40065C1171A
:1042E000090441EA104100042A460023FBF793FF2A
:1042F00032460023FBF78FFF206060682A46C11713
:10430000090441EA104100040023FBF784FF324610
:104310000023FBF780FF6060A0682A46C1170904EC
:1043200041EA104100040023FBF775FF32460023E9
:10433000FBF771FFA060002803DDA0F58030A060CE
:1043400002E000F58030A060002031E66C00002023
:104350002DE9F84F81468A4600252F486B460322F7
:1043600040680D210078FCF7D8FE10B10720BDE8A9
:10437000F88F9DF8000000F01F008DF800009DF8F8
:10438000010000F01F008DF801009DF8020000F010
:104390001F008DF8020000246F464FF0010859F805
:1043A00024005AF82410401A00D5404202F048F97F
:1043B0006FF00F0102F077FB0646385DF8B1174A3F
:1043C000DFF85CB004E05946104602F099F9024665
:1043D000385D401E10F0FF003855F4D111463046CC
:1043E00001F0FCFF4FF07E5102F088FA0D4920F0F9
:1043F000004088420BDD08FA04F0054307E00A4854
:104400003044B0F1D97F02D908FA04F00543641CA6
:10441000032CC4DB2846AAE76C0000200000C8413A
:1044200054E3853F295C0F3E0000E0BE00B5024624
:10443000104600F00DF80346D01C00F009F843EADE
:10444000C003901D00F004F843EA801080B200BD64
:1044500090F90010002902DD4FF00000704702DAE9
:104460004FF00400704790F90110002902DD4FF071
:104470000100704702DA4FF00500704790F9020022
:10448000002802DD4FF00200704702DA4FF006000C
:1044900070474FF007007047FEF72CFEFCF74CFC0E
:1044A0004FF4A060FCF754FF4FF4E13001F032F913
:1044B0002A48284B284A29491430FCF7A7FAFCF768
:1044C000EDFA41F61F4700213846FCF74FFCFCF798
:1044D000E5FEFCF7A7FD0026214C01254FF4967858
:1044E00013E04046FEF724FEC4F884616420FEF722
:1044F0001FFEC4F884516420FEF71AFEC4F88461DC
:104500006420FEF715FEC4F8845100F027F9002856
:10451000E7D11448282232210068FCF723FF124813
:10452000282232210068FCF71DFFFCF7E1FAFCF7B6
:104530002DFB39466320FDF703FA0C4FC4F8846164
:104540000B4A0C490C4800F04BF83880C4F88451F1
:10455000F4E7000008010020C800002044000240E9
:10456000000022425C000020600000204800002083
:1045700040000020500000204C0000207047000048
:104580002DE9F041002620F00104144D95F8240097
:10459000002802D00020BDE8F081A97A4FF0FF3852
:1045A00039B12F7C21402974A14200D0464624B95C
:1045B00001E04046EFE7287D18B1012000F0FAFF46
:1045C00002E0002000F0F6FF2CB100F0FDFB10B17E
:1045D0002F744046DFE73046DDE700006C00002026
:1045E0002DE9F74F8EB0054607A808A9CDE90010C0
:1045F0000DAB03AA09A90BA8FEF736FF18B10120DD
:1046000011B0BDE8F08FBDF82000C0057ED503983D
:1046100002F016F86FF01D04214602F044FA064637
:10462000049802F00DF8214602F03DFA074605987D
:1046300002F006F8214602F036FA8046069801F0AC
:10464000FFFF214602F02FFA81460121304602F099
:104650002AFA8346414602F053F882464FF0404121
:10466000384602F04DF80446494602F049F85146F2
:1046700001F040FE01F012FEFEF71EF901F0A0F875
:1046800028600121404602F00EFA8246414602F0BF
:1046900037F805462046394602F032F8294602F03E
:1046A0002DF94FF07E5101F025FE01F0F7FD044693
:1046B0000D465846394602F023F88346504649468F
:1046C00002F01EF8594601F015FE01F0E7FD224602
:1046D0002B46FEF739FB01F073F80F990860494645
:1046E000484602F00DF804464146404602F008F8FC
:1046F00005463946384602F003F8824631463046D0
:1047000001F0FEFF514601F0F5FD00E024E02946EE
:1047100002F0F4F8214602F0F1F801F0BFFD044682
:104720000D464946304601F0EBFF06464146384605
:1047300001F0E6FF314601F0DDFD012102F0B3F9A1
:1047400001F0ACFD22462B46FEF7FEFA01F038F8E8
:1047500010990860002053E7022051E710B5FCF7DC
:104760006DFB00F00BF908B10A2010BD782000F0B5
:104770004DFEC0B208B1012010BD7820FFF700FF48
:10478000C0B208B1022010BD642000F0FDFDC0B22F
:1047900008B1032010BDFEF75DFEC0B208B10420D1
:1047A00010BD1348FFF742FEFFF762F8C0B208B130
:1047B000052010BD40F27310FEF70CFDC0B208B129
:1047C000062010BD6420FEF797FFC0B208B1072095
:1047D00010BD00F0AFFE08B1082010BD012000F0B0
:1047E000EBFCC0B208B1092010BD002010BD0000D4
:1047F000980000200F4A517A002908D0012909D0D9
:1048000002290AD003290BD04FF0FF307047022154
:10481000017007E00421017004E00821017001E04B
:1048200010210170D17C11B1017849000170002084
:10483000704700006C000020114A517A002908D00E
:1048400001290AD002290CD003290ED04FF0FF30E5
:1048500070474FF4804101800AE041F69C7101806D
:1048600006E04FF48051018002E04FF400610180C6
:10487000D17C11B1018849080180002070470000F7
:104880006C0000200249097C017000207047000084
:104890006C0000200E49097A002909D001290AD0AC
:1048A00002290CD003290ED000210180002070477E
:1048B000FA210180FAE74FF4FA710180F6E74FF42C
:1048C0007A710180F2E74FF4FA610180EEE70000AF
:1048D0006C0000200C49097A002908D0012909D070
:1048E00002290AD003290BD04FF0FF307047074947
:1048F000016007E00649016004E00649016001E04B
:1049000005490160002070476C000020000003434F
:104910000000834233330342333383410F49C97A62
:10492000072917D2DFE801F01604070A0D1013005B
:10493000BC21018010E0622101800DE02A2101806C
:104940000AE01421018007E00A21018004E005212A
:10495000018001E000210180002070476C000020F0
:10496000054991F82420002A02D04FF0FF3070470B
:10497000C9890180002070476C0000202DE9FC41AE
:1049800080208DF80000544C6B4601222068817C09
:1049900060680078FCF753FC4FF0FF3610B13046EA
:1049A000BDE8FC816420FEF7C3FB00258DF80050B4
:1049B00020686B460122817C60680078FCF73FFC30
:1049C00008B13046ECE720686B460622817D6068BE
:1049D0000078FCF7A2FB08B13046E1E79DF805003E
:1049E0009DF80310C007400F01F0010140EA4101AA
:1049F0009DF8010000F001000143012761B1012988
:104A000006D0022906D035A0FBF72AFC3046C7E7BE
:104A1000E77414E0E57412E020686B460122C17867
:104A200060680078FCF779FB08B13046B8E79DF87C
:104A3000000000F00F0008B3042824D0E574FF2123
:104A400004F80A1F04F8021C04F8011C61704FF6F8
:104A5000FF70A080A1712172A77027766576E5723C
:104A6000A572E56025616561A576E576A5834FF4BD
:104A7000FA6000F0DFFB58B1304691E72148FBF7C0
:104A8000EFFB30468CE720A0FBF7EAFBE774D6E7A4
:104A9000022000F0CBFA08B1304681E72A2000F06E
:104AA00035FC08B130467BE7322000F06DFC08B1E0
:104AB000304675E70020FFF763FD08B130466FE729
:104AC000002000F0EDFA08B1304669E7002000F060
:104AD0009DFC002064E700006C000020556E73759B
:104AE00070706F7274656420736F6674776172653D
:104AF0002070726F64756374207265762025642E51
:104B00000A0000009079000848616C662073656EA9
:104B10007369746976697479207061727420666F44
:104B2000756E642E0A0000002DE9FF4F85B0054622
:104B30000E461746DFF8A0804FF0FF3998F82500A1
:104B4000002803D0484609B0BDE8F08F0EB100241C
:104B500025E04846F7E7281B102800DD10201FFA43
:104B600080FA3019834602465146204600F0A6FCE2
:104B700008B14846E7E701AA5146204600F0ECF8A4
:104B800008B14846DFE75846524601A9FBF74CFCFE
:104B900010B16FF00100D6E704EB0A0084B2AC421A
:104BA000D9D3380A8DF800008DF80170D8F80000CC
:104BB0006B460222817ED8F804000078FCF73FFBA8
:104BC00008B14846BFE7012088F825000898A8F8F2
:104BD00026000020B7E700006C0000202DE9F84314
:104BE00004464FF0FF37282C02D93846BDE8F88339
:104BF0002D4D4FF0070900268CB1012000F056FB27
:104C000020208DF800004FF00108012C1CD0052C4D
:104C100020D88DF80180052000F078FB29E00020E5
:104C200000F044FB8DF800608DF8019028686B4619
:104C30000222817C68680078FCF701FB08B13846E5
:104C4000D4E72E750020D1E78DF80160052000F033
:104C50005DFB0EE0142C06D802208DF801000A201E
:104C600000F054FB05E003208DF80100142000F053
:104C70004DFB9DF8010009EB80108DF801002868BC
:104C80006B460222817C68680078FCF7D8FA08B18C
:104C90003846ABE70820A8722E7385F814800020F0
:104CA000FFF76EFC0020A1E76C0000202DE9F8431F
:104CB000054689461746274E4FF0FF3896F82400E0
:104CC00000280DD0B07A68B130686B460222817A34
:104CD00070680078FCF721FA30B14046BDE8F883EF
:104CE0004046FBE74046F9E79DF801009DF80010BB
:104CF00040EA0124AC4203D2002038704046EDE780
:104D000070684188B4EB510F12D9316800786B4656
:104D1000497C0122FCF701FA08B14046DEE79DF824
:104D20000000C00604D500F04FF86FF00100D5E791
:104D30003068EAB24B46C17A70680078FCF7EDF94A
:104D400008B14046CAE7B4FBF5F0401E38700020B9
:104D5000C4E700006C0000202DE9F8430E469046A1
:104D60004FF0FF35B8F1000F10D0164FB97A79B176
:104D7000010A8DF80010C4B28DF80140A0197C68BA
:104D80006189884206D92846BDE8F8832846FBE7B2
:104D90002846F9E738686B460222017E2078FCF746
:104DA0004EFA08B12846EFE73868F2B24346417D33
:104DB00078680078FCF7B1F908B12846E4E70020EC
:104DC000E2E700006C000020F8B5594D4FF0FF36C7
:104DD000A87A00280CD00024009428686B46012291
:104DE000C17B68680078FCF72AFA18B13046F8BD34
:104DF0003046F8BD28686B46012241796868007822
:104E0000FCF71DFA08B13046F8BD28686B46012250
:104E1000017968680078FCF712FA08B13046F8BDED
:104E200095F8240090B30C20009028686B4601226E
:104E3000017968680078FCF702FA08B13046F8BDDD
:104E40003220FEF775F9C0200090A87AC00701D083
:104E5000E020009028686B4601220179686800789C
:104E6000FCF7EDF908B13046F8BD687C10B10220BE
:104E7000009000E0009428686B460122C17B6868BE
:104E80000078FCF7DCF910B13046F8BD0BE0009477
:104E900028686B460122417968680078FCF7CFF9F1
:104EA000B8B33046F1E70420009028686B46012231
:104EB000017968680078FCF7C2F908B13046E4E788
:104EC000A87C78B9A87AC0070CD060200090286828
:104ED0006B460122017968680078FCF7B0F920B1CF
:104EE0003046D2E740200090F1E73220FEF720F96B
:104EF000687C10B10120009000E0009428686B46A7
:104F00000122C17B68680078FCF799F910B130463E
:104F1000BBE70BE02868064B012241796868103333
:104F20000078FCF78CF908B13046AEE70020ACE71A
:104F30006C0000202DE9F0438BB0814688463A4D45
:104F400095F82400002804D0002000F035F901264F
:104F500000E0002602A8FFF79DFC04A8FFF74AFC2A
:104F60006846FFF7DBFC01A8FFF7FAFCAF7A03A85D
:104F7000FFF788FC0024002241464846FEF7FCFF6C
:104F800010B1641C022CF6DB022C19D00024012283
:104F900005A908A8FEF7F0FF10B1641C022CF6DB8F
:104FA000022C0FD005A94046FDF744FC00F0FF0895
:104FB00008A94846FFF7CCF9C0B2002420B104E0AC
:104FC000002407E0002405E00124B8F1000F01D11E
:104FD00044F00204FF2028726872E8724FF6FF71F5
:104FE000E981A872287401202873BDF8080000F038
:104FF00021F99DF8100000F019F8BDF8000000F04C
:1050000085F9BDF8040000F0BFF9384600F0FEF95C
:105010009DF80C00FFF7B4FA16B1012000F0CCF8AF
:105020000BB02046BDE8F0836C00002038B51B4C67
:105030004FF0FF35A17A002909D0022809D00428B1
:105040000AD008280BD010280CD0284638BD284696
:1050500038BD0020009007E00820009004E01020F8
:10506000009001E018200090607A9DF80010B0EBED
:10507000D10F01D1002038BD20686B460122C179D3
:1050800060680078FCF7DBF808B1284638BD9DF869
:105090000000C0086072002038BD00006C000020D5
:1050A000F8B50446434DA87CA04201D10020F8BDCC
:1050B00040484FF0FF36D0E90010ACB309790078D2
:1050C0006B460122FCF729F808B13046F8BD9DF87F
:1050D000000020F02000009028686B460122017932
:1050E00068680078FCF7ABF808B13046F8BD0320DB
:1050F000FEF71EF80220009095F8220008B18220E9
:10510000009095F8230020B19DF8000040F0300099
:10511000009028686B460122017D68680078FCF7E2
:105120008EF8E8B33046F8BDFFE7097900786B46A2
:105130000122FBF7F2FF08B13046F4E7A87AC00776
:1051400005D09DF8000040F02000009004E09DF89C
:10515000000020F02000009028686B4601220179B1
:1051600068680078FCF76BF808B13046DBE703208D
:10517000FDF7DEFF95F8220010B18020009001E0DD
:105180000020009095F8230020B19DF8000040F029
:105190003000009028686B46017D6868007800E068
:1051A00005E00122FCF74BF808B13046BBE7AC74D0
:1051B0000020B8E76C00002038B51D4C94F824108E
:1051C000814201D1002038BD0025F0B194F82500BE
:1051D000C0B1002000F0EEF90020FFF761FFE08C85
:1051E00000F0D2F8009560686B4601220078232118
:1051F000FCF725F8012084F8240000F0DBF9FFF724
:10520000E3FD12E04FF0FF3038BD002000F0D2F98E
:10521000207C009060686B46012200782321FCF717
:105220000EF884F82450FFF7CFFD002038BD0000B1
:105230006C00002038B51C4C4FF0FF35A17A0029D6
:105240000CD0FA280CD0B0F5FA7F0CD0B0F57A7FEC
:105250000CD0B0F5FA6F0CD0284638BD284638BDC2
:105260000020009007E00820009004E0102000904B
:1052700001E018200090207A9DF80010B0EBD10FCB
:1052800001D1002038BD20686B4601228179606819
:105290000078FBF7D4FF08B1284638BD9DF8000020
:1052A000C0082072002038BD6C00002038B50446CC
:1052B000154D95F82300A04201D1002038BD14B14E
:1052C0003020009001E000200090A87C20B19DF8E3
:1052D000000040F00200009095F8220020B19DF8F7
:1052E000000040F08000009028686B460122017D9C
:1052F00068680078FBF7A3FF10B14FF0FF3038BDAE
:1053000085F82340002038BD6C00002038B51D4CC6
:105310004FF0FF35A17A002904D0BC2804D3012026
:10532000009017E0284638BD622802D30220009082
:1053300010E02A2802D3032000900BE0142802D3A7
:105340000420009006E00A2802D30520009001E026
:1053500006200090E07A9DF80010884201D10020DC
:1053600038BD20686B460122817860680078FBF7C1
:1053700066FF08B1284638BD9DF80000E0720020A5
:1053800038BD00006C000020F8B504461E4D4FF0FB
:10539000FF37A87A002804D095F8240018B13846C1
:1053A000F8BD3846F8BD287D50B134B1282C04D85A
:1053B000E0B2FFF713FC0020F8BD0020FFF70EFC61
:1053C0004FF47A76042C01D2042402E0B44200D9CE
:1053D0003446B6FBF4F0401E009028686B4601226C
:1053E000417868680078FBF72AFF08B13846F8BDB5
:1053F0009DF80000401CB6FBF0F0E8814008FFF784
:1054000085FF0020F8BD00006C000020F8B50446C0
:1054100014F0700F4FF0000602D00120009004E05D
:105420000CB1009601E040200090234D6B46012214
:105430002868817C68680078FBF701FF4FF0FF3730
:1054400010B1AE723846F8BD9DF8000020F0400063
:1054500028730096600601D404200090A00604D4AE
:105460009DF8000040F002000090E00604D49DF892
:10547000000040F001000090200704D49DF80000D7
:1054800040F03800009028686B460122C17C6868B3
:105490000078FBF7D4FE10B1AE723846F8BD24B1E7
:1054A000082C02D00020FFF701FFAC722E753220CD
:1054B000FDF73EFE0020F8BD6C0000202DE9F8430A
:1054C0000E4690464FF0FF35B8F1000F10D0164F42
:1054D000B97A79B1010A8DF80010C4B28DF8014093
:1054E000A0197C686189884206D92846BDE8F883FE
:1054F0002846FBE72846F9E738686B460222017E1A
:105500002078FBF79CFE08B12846EFE73868F2B236
:105510004346417D78680078FBF791FE08B1284644
:10552000E4E70020E2E700006C000020002800DA39
:105530004042704710B588B002A905A8FFF7FAFCF1
:10554000032802D0012008B010BD01A8FFF7C2F95E
:10555000059801F075F801990C4601F0D1F801F0B9
:1055600033F80590069801F06BF8214601F0C8F871
:1055700001F02AF80690079801F062F8214601F040
:10558000BFF801F021F8079005A8FEF7EDF868468E
:10559000FFF752F9BDF800000299414302910399C7
:1055A0004143039104994143049102A8FEF71EF878
:1055B0000020C8E7F8B51B4C0023224694F824606D
:1055C00006CA5D1E002E11D010B10220009000E02E
:1055D00000931078C97B6B460122FBF730FE08B1BF
:1055E0002846F8BD9DF80000607419E0A67A26B13F
:1055F00028B1667C1EB10020F8BD2846F8BD10B168
:105600000120009000E000931078C97B6B460122D6
:10561000FBF715FE08B12846F8BD9DF80000607440
:105620000020F8BD6C00002000B5254B21F00042A1
:1056300087B09A4203DC0022134600922BE0214BF4
:105640009A4208D140B94FF00100FAF7C8FFFDF7C0
:10565000DAF807B000BD03DBFDF7D0F807B000BDF6
:1056600002AAFCF7BDFD10F003014FF001000DD0C0
:10567000012914D002291AD00DF1080C9CE80F0062
:10568000FCF772FF07B081F0004100BD0DF1080C7E
:1056900000909CE80F00FDF73BF807B000BD0DF14E
:1056A000080C9CE80F00FCF75FFF07B000BD0DF190
:1056B000080C00909CE80F00FDF72AF8E2E70000D4
:1056C000FB21E93F0000F07F2DE9F04106460F463F
:1056D00000F014FC04000D4618BF0120284320F000
:1056E0000040C0F17F6000F1E040C00F0ED0301CE0
:1056F00018BF0120384320F00040C0F17F6000F166
:10570000E040C00F04BF0120FAF769FF2046294698
:10571000BDE8F08170B586B00546012144F2040071
:10572000FBF7AEFE4FF40070ADF8140003248DF8C3
:10573000164018218DF817101F4E05A93046FBF7AB
:1057400073FA3115ADF8141004218DF8171005A95E
:105750003046FBF769FA25208DF800008DF80140EE
:105760008DF8024001208DF803006846FBF7BEFD6E
:1057700001950020ADF80800ADF80A00ADF80C0066
:10578000ADF810000C20ADF80E000C4C01A920461D
:10579000FCF7AEFC012240F225512046FCF78CFCC0
:1057A000012280212046FCF75DFC01212046FCF708
:1057B0004DFC06B070BD00000008014000380140FB
:1057C00021F00042A2F16052B2F5801F01F00043C7
:1057D00028BFD2F17F6C0BD95FEA001C43EAC202FA
:1057E00042EB507018BF704728BF20F0010070478F
:1057F000B2F5801FBCBF184670474FEA410C1CF53C
:10580000001F02D2084601F042B870B500F016FB46
:1058100000000089FFF7F6BF4FF00040A0F58000C0
:105820007047000010B591EA030F48BF83F00043B2
:1058300000F15284841A71EB030C05D2121943EB68
:105840000C03001B61EB0C01DFF824E14FEA11545B
:10585000A4EB135C1EEA430F18BF9EEA445F73D0AB
:1058600023EA0E03DCF1200E21EA045143F48013F5
:1058700032D322FA0CFE10EB0E0023FA0CFE41EBA1
:105880000E01CCF1200E03FA0EFE10EB0E0051F1CA
:105890000001B1F5801FCCF1200E32D201EB045192
:1058A00012FA0EF2BDE8104058BF7047401C38BFD6
:1058B0005FEA420218BF7047002814BF20F00100C1
:1058C00041F100014FEA410313F5001F38BF704753
:1058D000A1F1C04100F000BB012A43EB0302ACF18F
:1058E000200CDCF11F0E32BF4FF0000E23FA0CF338
:1058F00010EB030041EB0451B4EB115FD0D0A1EBEE
:10590000045101F5801149085FEA300001EB0451B0
:105910000ED350F1000038BF12FA0EFE08D1BDE8D8
:105920001040C9E7401C38BF5FEA4202CAD1C3E752
:10593000BDE810404FEA410313F5001F38BF704720
:10594000A1F1C04100F0C8BA9EEA445F08D011EA54
:105950005E0FBDE8104004BF01F000410020704719
:10596000BDE8104070B500F069FA00BF64FBBE3EB0
:105970000000E0FF02494FF0000001F034B800BF22
:105980000000F87F2DE9C04130B4DFF8A0C23CEA46
:10599000111418BF3CEA131400F0EC8081EA0305EF
:1059A0001CEA111444EAD57418BF1CEA131500F060
:1059B000C780A4EB05044FF0004545EAC12145EA44
:1059C000C32341EA505143EA525304F17F74994290
:1059D00004F500344FEAC0204FEAC22208BF9042CB
:1059E00000F09C804FEA13650FF24016765D4FEA97
:1059F000134506FB05F7C7F1807706FB07F74FEA6B
:105A0000D737A7FB03687642C8F58038A7FB06CED8
:105A100038BFA8F1010807FB08E64FF0000EA6FB0F
:105A2000028CE6FB03CEDCF1000CCEF1004E38BF59
:105A3000AEF1010EA6FB0C584FF000074FF0000529
:105A4000E6FB0E87A1FB08C6A0FB07CE16EB0E06F1
:105A500045F10005E1FB076515F1E04E7EBFA4F5B9
:105A600080345FEA46066D4116F1800745F1000576
:105A70004FEA17274FEA066647EA0567A6F1DE46B2
:105A8000B6F1805F4FEA15251FD9384624F0010C86
:105A900005EBC471BCF1FE6F01EB0C1102D8F0BC38
:105AA000BDE8008124425CBF01F5801E9EEAC47FF0
:105AB00002D4F0BCBDE80081244238D4F0BCA1F18E
:105AC000C041BDE8004100F007BA4FEAD22242EAE5
:105AD00043524FEAD323A7FB02864FEAD02040EA85
