:020000040800F2
:1000000010080020D5010008A5140008450E0008BE
:100010004F140008A30700087B250008000000001B
:10002000000000000000000000000000D9170008D8
:10003000550B00080000000011160008A519000863
:10004000EF010008EF010008EF010008EF010008D0
:10005000EF010008EF010008EF010008EF010008C0
:10006000EF010008EF010008EF010008EF010008B0
:10007000EF010008EF010008A9070008CD070008FC
:10008000EF010008EF010008EF010008EF01000890
:10009000EF010008EF010008EF010008EF01000880
:1000A000EF010008C11C0008EF010008EF01000883
:1000B000A91D0008EF010008C11D0008EF0100089C
:1000C000EF010008EF010008EF010008EF01000850
:1000D000EF01000899230008EF010008EF01000874
:1000E000EF010008EF010008EF010008EF01000830
:1000F000EF010008EF010008EF010008EF01000820
:10010000EF010008EF010008EF010008EF0100080F
:10011000EF010008EF010008EF010008EF010008FF
:10012000EF010008EF010008EF010008EF010008EF
:1001300000F002F800F03FF80AA090E8000C8244BA
:100140008344AAF10107DA4501D100F034F8AFF297
:10015000090EBAE80F0013F0010F18BFFB1A43F0A5
:10016000010318474C8100006C810000103A24BF45
:1001700078C878C1FAD8520724BF30C830C144BF0C
:1001800004680C607047000000230024002500264E
:10019000103A28BF78C1FBD8520728BF30C148BFEA
:1001A0000B607047642900F06780002070471FB51E
:1001B0001FBD10B510BD00F0C9FA1146FFF7F7FFDB
:1001C00004F09CFC00F0E7FA03B4FFF7F2FF03BC75
:1001D00002F013FD0948804709480047FEE7FEE7A3
:1001E000FEE7FEE7FEE7FEE7FEE7FEE7FEE7FEE7E7
:1001F00004480549054A064B70470000A919000844
:100200003101000810020020100800201004002016
:1002100010040020704710B54C1084EA530404D534
:100220004042C1F1000138BF491E1B4204D5524271
:10023000C3F1000338BF5B1E00F055F914F0804F86
:1002400004D04042C1F1000138BF491E14F0004FF4
:1002500004D05242C3F1000338BF5B1E10BD000042
:100260000FB4044910B503AA029800F017FA10BCA5
:100270005DF814FB180000202DE9F041064600242B
:1002800010687529314616A510D0AFF300800028FC
:1002900002DA404213A507E031688A0701D512A5AA
:1002A00002E0490704D511A5012401E0AFF3008065
:1002B00000210A2206F1240709E0B0FBF2FCB0FBA2
:1002C000F2F302FB1C00303078541846491C002819
:1002D000F3D123462A463046BDE8F04100F085B907
:1002E000000000002D0000002B0000002000000096
:1002F0002DE9F05F894604464FF0000ADFF824B18B
:10030000FB44C0F820A02046E168884700287DD043
:10031000252806D0D4E901219047206A401C20629C
:10032000F1E700255F462046E16888472028064619
:1003300007DB312E05D2B81910F8200C08B105439F
:10034000F1E7A80701D525F00405C4F81CA0002793
:10035000C4F818A02A2E09D0304602F047FC38B362
:1003600004EB8708303EC8F8186019E059F8041B00
:10037000204604EB87029161E1688847012F064619
:1003800018D1E069002820DA25F020051DE0D8F812
:10039000180000EB800006EB40003038C8F8180069
:1003A0002046E1688847064602F020FC0028EED18E
:1003B000012F0AD02E2E08D12046E16888477F1CE5
:1003C0000646022F45F02005C4DBA069002803DAA9
:1003D000404245F00105A061E80701D025F0100575
:1003E000A6B1A6F14100192802D8203645F40065CF
:1003F0004A463146204625604D46FFF7D3FE60B1A0
:10040000012807D0ED1D25F0070000E007E000F10E
:10041000080978E705F1040975E730467AE7206AAC
:10042000BDE8F09F3A7D000040EA010310B59B074C
:100430000FD1042A0DD310C808C9121F9C42F8D04E
:1004400020BA19BA884201D9012010BD4FF0FF30FF
:1004500010BD1AB1D30703D0521C07E0002010BD15
:1004600010F8013B11F8014B1B1B07D110F8013BA1
:1004700011F8014B1B1B01D1921EF1D1184610BD82
:1004800002F0FF0343EA032242EA024200F01AB9F3
:100490004FF0000200B5134694469646203922BF1D
:1004A000A0E80C50A0E80C50B1F12001BFF4F7AF68
:1004B000090728BFA0E80C5048BF0CC05DF804EB4A
:1004C000890028BF40F8042B08BF704748BF20F8B8
:1004D000022B11F0804F18BF00F8012B70477047B6
:1004E00070477047704753EA020C00F069802DE9AD
:1004F000F04B4FF00006002B1FBFB3FA83F503FA51
:1005000005F424FA05F65E4012BF1643B2FA82F5EE
:1005100002FA05F4C5F120051EBF22FA05FC44EAE3
:100520000C04203556EA044C4FEA144418BF641CEE
:100530004FF000084FF00009904271EB030C39D3E3
:10054000002919BFB1FA81F701FA07F6B0FA80F76E
:1005500000FA07F6C7F120071EBF20FA07FC46EA9B
:100560000C062037B6FBF4FCA7EB0507103F07F09D
:100570001F0BCBF120060CFA0BFB2CFA06F644BF3E
:10058000B3460026202FA4BF5E464FF0000B5BEA67
:10059000060C08BF4FF0010B19EB0B09ABFB027CFB
:1005A00048EB0608C01B06FB02CC0BFB03CC71EB2F
:1005B0000C01C1E70B46024641464846BDE8F08BB8
:1005C00013B54FF000004FF00001AFF30080BDE81D
:1005D0001C40704710B500F095F8006810BD10B5CC
:1005E000044600F08FF8046010BD2DE9F0470D4679
:1005F00099469246044600F124080168880604D50D
:10060000E06921F01001216000E00120A84201DD35
:10061000471B00E00027A1697A1902EB0900081ABC
:10062000A0612078C00602D42046AFF300800026E7
:1006300008E0D4E901211AF806009047206A401C1E
:10064000761C20624E45F4DB2078C0060AD5204691
:10065000AFF3008006E0D4E9012130209047206A02
:10066000401C2062381EA7F10107F4DC07E0D4E942
:10067000012118F805009047206A401C2062281EBE
:10068000A5F10105F3DC2046AFF3008020780006D9
:1006900002D50220BDE8F0870120FBE7074B70B5CB
:1006A0000D467B4400F037F80446284600F046F833
:1006B00010B14FF0FF3070BD204670BD5B3B0000B5
:1006C0004FF000020429C0F0128010F0030C3FF438
:1006D000E1AECCF1040CBCF1020F18BF00F8012B05
:1006E000A8BF20F8022BA1EB0C01FFF7D3BE5FEAF5
:1006F000C17C24BF00F8012B00F8012B48BF00F893
:10070000012B704700487047B001002001694A1C66
:1007100002610878704700B58FB0CDE90131002142
:10072000059105497944CDE9031011466846FFF764
:10073000DFFD0FB000BD0000E5FFFFFF007B00F014
:100740008000704700487047B00100207546FFF7F1
:10075000F9FFAE4605006946534620F0070085467E
:1007600018B020B5FFF744FDBDE820404FF000066B
:100770004FF000074FF000084FF0000B21F0070189
:10078000AC46ACE8C009ACE8C009ACE8C009ACE8CC
:10079000C0098D4670470446AFF300802046FFF73E
:1007A00013FD00BFFEE7000010B54FF4005000F04D
:1007B00007F938B14FF4005000F042F80021024828
:1007C00000F04CF810BD00004400024010B54FF49A
:1007D000003000F0F5F858B30021164800F03EF85C
:1007E0000E21144800F029F90121124800F036F8D2
:1007F00000224021104801F0F7FD012240F225516E
:100800000D4801F024FE0D4803F062FD04461CB1C2
:100810000E210A48FFF73CFE4FF4003000F010F8BC
:100820004FF4803000F00CF84FF4802000F008F80E
:1008300010BD0000580002400038014014010020A3
:1008400000F0805111B10349086001E0024948609D
:1008500070470000040402400000024021B1026819
:1008600042F00102026004E002684FF6FE731A4093
:100870000260704701684FF6FE721140016000216E
:10088000016041608160C1604B49884208D14A499A
:100890000839496841F00F01474A083A51608AE037
:1008A00045491431884208D143490839496841F023
:1008B000F001414A083A51607DE03F4928318842C1
:1008C00008D13D490839496841F470613A4A083A0B
:1008D000516070E038493C31884208D136490839C6
:1008E000496841F47041344A083A516063E0324942
:1008F0005031884208D130490839496841F47021A3
:100900002D4A083A516056E02B496431884208D19B
:1009100029490839496841F47001274A083A516069
:1009200049E025497831884208D123490839496886
:1009300041F07061204A083A51603CE01F4988420A
:1009400006D1011F096841F00F01021F116032E05A
:100950001A491431884208D11849091F096841F021
:10096000F001164A121F116025E01449283188420F
:1009700008D11249091F096841F470610F4A121F1A
:10098000116018E00D493C31884208D10B49091F1C
:10099000096841F47041094A121F11600BE00749D0
:1009A0005031884207D10549091F096841F4702177
:1009B000024A121F116070470800024008040240FA
:1009C00001460020002201F0805313B1054B1A6844
:1009D00001E0054B1A6802EA01030BB1012000E0B7
:1009E0000020704700040240000002401AB1036872
:1009F0000B43036002E003688B430360704710B54C
:100A00000022026847F6F0739A430C6A8B6823430E
:100A10000C6923434C6923438C692343CC692343EA
:100A20004C6A23438C6A23431A430260CB684360B9
:100A30000B6883604B68C36010BD4160704710B5A0
:100A4000044600212046FFF709FF1B212046FFF73F
:100A5000F4FF01212046FFF701FF10BD2DE9F04111
:100A600007460C4615461E460121084600F0D2FDF9
:100A70002046FFF7FFFE3846FFF7FCFE1D481E49E3
:100A8000086008464560102088604020C86000204B
:100A900008618020486100208861C86108624FF4C5
:100AA00080504862002088622046FFF7A8FF00219E
:100AB0003846FFF7D3FE0F480F49086008464660E6
:100AC000002088600E20C8600020086180204861F6
:100AD00000208861C86108624FF4405048620020DD
:100AE00088623846FFF78BFF01213846FFF7B6FED4
:100AF000BDE8F081043801402401002010B50E202B
:100B0000124908700220487088700120C870084699
:100B100000F0CAFC012202210D48FFF767FF0F20F9
:100B20000A4908700220487001208870C870084681
:100B300000F0BAFC0122022105481430FFF756FFED
:100B40004FF40030FFF77CFE10BD00005C00002079
:100B5000440002407047000000B587B001210846FC
:100B600000F068FD0121042000F084FD0320ADF8B1
:100B7000000004208DF8030069461E4800F08AF842
:100B800004A801F0FFFB0020ADF810004FF6FF7045
:100B9000ADF814000020ADF81600ADF8120004A95D
:100BA0004FF0804001F09CFB00231A4603214FF0D8
:100BB000804001F017FA01A801F09CFA0A20ADF874
:100BC0000C0001A9400701F03FFA0121880701F05C
:100BD00003F901221146900701F095FA00214FF028
:100BE000804001F04EFB0121880701F0FBF807B0BF
:100BF00000BD00000008014000B587B001210420BD
:100C000000F018FD0121082000F034FDC020ADF8EF
:100C1000000028208DF8030069461C4800F03AF8CF
:100C200004A801F0AFFB0020ADF810004FF6FF70F4
:100C3000ADF814000020ADF81600ADF8120004A9BC
:100C4000134801F04DFB00231A460321104801F020
:100C5000C9F901A801F04EFA0A20ADF80C0001A96B
:100C60000B4801F0F1F90121094801F0B5F8012222
:100C70001146074801F047FA0021054801F001FB41
:100C80000121034801F0AEF807B000BD000C01409F
:100C9000000800402DE9F041024600250026002012
:100CA00000230024002791F803C00CF00F0591F8F1
:100CB00003C00CF0100CBCF1000F03D091F802C07F
:100CC0004CEA050591F800C0BCF1000F31D0146862
:100CD00000202BE04FF0010C0CFA00F3B1F800C03B
:100CE0000CEA03069E4220D183004FF00F0C0CFA51
:100CF00003F7BC4305FA03FC4CEA040491F803C073
:100D0000BCF1280F06D14FF0010C0CFA00FCC2F820
:100D100014C00AE091F803C0BCF1480F05D14FF0B0
:100D2000010C0CFA00FCC2F810C0401C0828D1D3FA
:100D30001460B1F800C0BCF1FF0F34DD546800202E
:100D40002EE000F1080C4FF0010808FA0CF3B1F89E
:100D500000C00CEA03069E4221D183004FF00F0C25
:100D60000CFA03F7BC4305FA03FC4CEA040491F8BF
:100D700003C0BCF1280F05D100F1080C08FA0CF8EB
:100D8000C2F8148091F803C0BCF1480F07D100F1FC
:100D9000080C4FF0010808FA0CF8C2F81080401C4B
:100DA0000828CED35460BDE8F0810000F0B50A46B3
:100DB000002300240021002500F00046B6F1004F7A
:100DC00002D11D4EF16901E01B4E7168C0F303456D
:100DD00083B200F44016B6F5401F08D121F07061CF
:100DE000154E766826F07066134F7E6012E000F4B0
:100DF0008016B6F5801F06D1032606FA05F4A14336
:100E000041F0706106E0460D360103FA06F6B14383
:100E100041F0706122B1460D360103FA06F6314306
:100E200000F00046B6F1004F02D1034EF16101E03F
:100E3000014E7160F0BD000000000140416170474B
:100E40000161704700BFFEE708B50121102000F0E6
:100E500011FC0220ADF8000003208DF802001020E4
:100E60008DF8030069460448FFF714FF0221024889
:100E7000FFF7E4FF08BD00000010014030B589B065
:100E800005460C460121022000F0D4FB012105207B
:100E900000F0F0FBC020ADF8200018208DF82300F2
:100EA00003208DF8220008A91748FFF7F3FEADF8DC
:100EB0001850ADF814400020ADF81A00ADF8160037
:100EC00005A9124801F00CFA6020ADF804000120D9
:100ED000ADF806000020ADF80C0001A90B4801F0A8
:100EE0001BF901A9094801F06DF90821074801F033
:100EF0005FF90821054801F0B7F90121034800F026
:100F000071FF09B030BD000000080140000400403E
:100F100010B500200E4908600E48006820F0F0006F
:100F20000C4908600846006840F030000860002066
:100F30000949C1F8A40100F011F801200449086032
:100F400000F00CF800200449C1F8A00110BD000019
:100F5000A0812142040C01400080214210B50220F2
:100F600002F04EFB10BD000008B50121082000F082
:100F700081FB4FF44070ADF8000010208DF80300A5
:100F800003208DF8020069460448FFF783FE4FF402
:100F900040710248FFF754FF08BD0000000C0140FB
:100FA00010B500200E4908600E48006820F0F000DF
:100FB0000C4908600846006840F0300008600120D5
:100FC0000949C1F8A401FFF7C9FF012004490860DD
:100FD000FFF7C4FF00200449C1F8A00110BD0000C4
:100FE000A0812142040C01400080214270B50546D9
:100FF00000241648006820F0F000144908600846F4
:10100000006840F080000860002614E000201049CD
:101010000860FFF7A3FF01200E49C1F8A001600698
:10102000040E0B487C38006808B1601CC4B2FFF79E
:1010300095FF701CC6B2082EE8DB15B9FFF7B0FFAC
:1010400001E0FFF765FF204670BD0000040C014081
:10105000A08121420080214270B5044612480068F8
:1010600020F0F000104908600846006840F03000A9
:10107000086000200D490860002512E0E0090B49D6
:10108000091D08606006040E01200949C1F8A0018D
:10109000FFF764FF002005490860FFF75FFF681C49
:1010A000C5B2082DEADB70BD040C0140A0812142CD
:1010B0000080214210B50E48006820F0F0000C4975
:1010C00008600846006840F03000086001200949C7
:1010D00008600949C1F8A001FFF740FF0020054959
:1010E0000860FFF73BFF00200349C1F8A00110BDD5
:1010F000040C0140A48121420080214210B50E4819
:10110000006820F0F0000C4908600846006840F0D4
:10111000300008600020094908600949C1F8A401AD
:10112000FFF71CFF0120054908600549C1F8A4012B
:10113000FFF714FF10BD0000040C0140A081214204
:101140000080214210B500241448006820F0F0000F
:10115000124908600846006840F0800008600120DD
:101160000F490860FFF7FAFE01200E49C1F8A001FF
:10117000FFF7F4FE07E0601CC4B2FA2C03DDFFF7B2
:10118000BDFF012010BD0648803800680028F2D15C
:101190000349091F086000BFF4E70000040C014088
:1011A000A48121420080214238B50121084600F087
:1011B00061FA0121042000F05DFA4FF40040ADF81F
:1011C000000010208DF8030003208DF8020069460E
:1011D0002248FFF75FFD01212148FFF7E7FD0020CE
:1011E00020490860FFF7C0FE80216B2000F0DDF889
:1011F000642002F0DFF900216B2000F0D6F8032014
:1012000000F091F8002000F086F8322000F0B0F8ED
:101210000021382000F0C9F800216A2000F0C5F84C
:101220000021232000F0C1F88021372000F0BDF814
:10123000752000F019F80446682C0BD101216B20B1
:1012400000F0B3F800216C2000F0AFF8322000F07D
:101250008FF801E0012038BD0020FCE700080140C4
:1012600000023000BC01214270B50446FFF722FFA6
:10127000D020FFF7F1FEFFF765FF2046FFF7ECFEF9
:10128000FFF760FFFFF716FFD120FFF7E5FEFFF73E
:1012900059FF0020FFF7AAFE0546FFF72FFF28465B
:1012A00070BD2DE9F04106460F4614461D46FFF776
:1012B00001FF002141EA4601C8B2FFF7CDFEFFF76A
:1012C00041FF20B1FFF71AFF0120BDE8F081384649
:1012D000FFF7C2FEFFF736FFFFF7ECFE012101EB3F
:1012E0004601C8B2FFF7B8FEFFF72CFF0DE0012C56
:1012F00004D10020FFF77AFE287003E00120FFF7F9
:1013000075FE2870601EC4B26D1C002CEFD1FFF773
:10131000F5FE0020D9E710B50446E006010E1C20BA
:1013200000F043F810BD10B50446E006010E1B2086
:1013300000F03BF810BD70B504460025BC2C01DB65
:10134000012510E0622C01DB02250CE02A2C01DBD8
:10135000032508E0142C01DB042504E00A2C01DB42
:10136000052500E0062529461A2000F01EF870BD6C
:1013700070B50446B4F57A7F01DD4FF47A74042C1D
:1013800000DA04244FF47A7090FBF4F0401EC5B2EA
:101390002946192000F009F80546264604EBD671C7
:1013A000C1F34F00FFF7C7FF70BD70B505460C468F
:1013B000FFF780FED020FFF74FFEFFF7C3FE18B106
:1013C000FFF79CFE012070BD2846FFF745FEFFF7A2
:1013D000B9FE2046FFF740FEFFF7B4FE18B1FFF755
:1013E0008DFE0120EFE7FFF789FE0020EBE72DE9F6
:1013F000F04105460E4617469846FFF75BFE002172
:1014000041EA4501C8B2FFF727FEFFF79BFE20B176
:10141000FFF774FE0120BDE8F0813046FFF71CFEA7
:10142000FFF790FE00240CE018F80400FFF714FE0C
:10143000FFF788FE18B1FFF761FE0120EBE7601CA3
:10144000C4B2BC42F0DBFFF759FE0020E3E700BF67
:10145000FEE7000008B50121042000F00BF901218E
:10146000102000F007F93020ADF8000010208DF8B2
:10147000030003208DF8020069460848FFF70AFCC4
:101480003020ADF8000010208DF8030003208DF807
:10149000020069460248FFF7FDFB08BD0008014055
:1014A000001001407047000070B5002100230F229A
:1014B000C47804B3154C246804F4E064C4F5E06413
:1014C000210AC1F10403CA40447804FA03F1847884
:1014D0001440214309010E4C0678A155047804F00C
:1014E0001F050124AC4005786D11AD0005F1E02524
:1014F000C5F8004109E0047804F01F050124AC4060
:10150000044D0678761145F8264070BD0CED00E0DC
:1015100000E400E080E100E002490143024A11607A
:10152000704700000000FA050CED00E0074B036077
:10153000074B4360074B83600023C3600361436133
:101540008361C3610162426270470000F6281C3F5C
:101550000AD7233CCDCC4C3E2DE9F05F05460E4624
:10156000144600BF3146284605F058FEE060284684
:10157000E16905F085FC03D0E5610020A06113E07E
:10158000E168A06905F04CFBA0611E49A06905F067
:1015900013FE02D81B48A06106E01B49A06905F0B4
:1015A0000BFD01D81848A061D4E9031005F036FE00
:1015B0008246A16805F034FD8046A169606805F0A7
:1015C0002FFD8246E168206805F02AFD83465146DA
:1015D00005F026FB8146414605F022FB0746206ABE
:1015E00005F0BEFC81464946384605F087FB80463B
:1015F000064905F015FD0746E06820613846BDE85C
:10160000F09F000000409C4500409CC50000C8427F
:101610007047000029B1064A52690243044B5A61DF
:1016200004E0034A52698243014B5A61704700004B
:101630000010024029B1064AD2690243044BDA6124
:1016400004E0034AD2698243014BDA61704700002B
:101650000010024029B1064A12690243044B1A6184
:1016600004E0034A12698243014B1A61704700008B
:101670000010024029B1064A92690243044B9A6164
:1016800004E0034A92698243014B9A61704700006B
:101690000010024029B1064AD2680243044BDA60C6
:1016A00004E0034AD2688243014BDA6070470000CD
:1016B0000010024030B500210022002400232D4DEF
:1016C0006D6805F00C0121B1042905D0082923D14A
:1016D00005E0294D056022E0274D05601FE0254DFE
:1016E0006D6805F47012234D6D6805F48034022591
:1016F00005EB92421CB9214D554305600BE01D4D91
:101700006D6805F400351DB11C4D5543056002E0C0
:10171000194D5543056002E0174D056000BF00BF3D
:10172000144D6D6805F0F0010909154D6B5C0568F5
:10173000DD4045600F4D6D6805F4E061090A104D0C
:101740006B5C4568DD4085600A4D6D6805F460514D
:10175000C90A0B4D6B5C4568DD40C560054D6D6881
:1017600005F44041890B074D6B5CC568B5FBF3F58B
:10177000056130BD0010024000127A0000093D00F2
:101780001E0000202E0000200146022904D003295B
:101790000BD0042917D10FE04FF08042928C10B289
:1017A00000224FF080439A840FE0094A128810B259
:1017B0000022074B1A8008E0064A128810B2002265
:1017C000044B1A8001E0002000BF00BF70470000FA
:1017D0002404004024080040704710B500F002F8CF
:1017E00010BD00000CB50020019000903348006847
:1017F00040F480303149086000BF3048006800F490
:10180000003000900198401C0190009818B9019890
:10181000B0F5A06FF1D12948006800F4003010B194
:101820000120009001E0002000900098012843D1A1
:101830002348006840F0100021490860084600680D
:1018400020F0030008600846006840F002000860CD
:101850001A48406819494860084640684860084688
:10186000406840F4806048600846406820F47C107E
:1018700048600846406840F4E81048600846006840
:1018800040F08070086000BF0C48006800F00070F5
:101890000028F9D00948406820F003000749486053
:1018A0000846406840F00200486000BF03484068B6
:1018B00000F00C000828F9D10CBD00000010024017
:1018C0000020024000B503460A46002B02DD642BCF
:1018D00000DD6423002B04DA13F1640F01DA6FF0EA
:1018E0006303002B07DD00201F49086001201F490A
:1018F000C1F8900106E001201B49086000201B4947
:10190000C1F89001184604F08BFA00EB800101EB5E
:10191000801017490880002A02DD642A00DD642255
:10192000002A04DA12F1640F01DA6FF06302002A70
:1019300007DD00200F49086001200F49C1F8900120
:1019400006E001200B49086000200B49C1F8900116
:10195000104604F065FA00EB800101EB80100449A9
:10196000091D088000BD00009401214200002142B1
:10197000340400409401224200002242042808D18D
:101980004FF0E021096941F004014FF0E0221161BC
:1019900007E04FF0E021096921F004014FF0E02257
:1019A000116170477047000010B51348006840F09F
:1019B00001001149086008464068104908400E4976
:1019C0004860084600680E4908400B490860084610
:1019D000006820F4802008600846406820F4FE007B
:1019E00048604FF41F008860FFF7F7FE4FF000607B
:1019F0000449086010BD0000001002400000FFF81C
:101A0000FFFFF6FE08ED00E0F0B50C46154600229B
:101A10000021068C4FF6FE773E400684028B018C37
:101A20004FF60C7632407E1C06EA03162E433243F4
:101A3000104EB0420ED0104EB0420BD0B0F1804FDD
:101A400008D00E4EB04205D00D4EB04202D00D4E21
:101A5000B04206D14FF6FD76314044F001063143E5
:101A600005E04FF6F576314044F00106314302833C
:101A70000184F0BD002C014000340140000400400E
:101A800000080040000C0040F0B50C46154600224E
:101A900000210026078C4FF6EF7C07EA0C0707842D
:101AA000028B018C4FF6FF7707EA041640F6FF47DA
:101AB0003A404FF6FF7707EA03373A434FF6FF778E
:101AC00007EA05273A43114FB8420ED0104FB842EB
:101AD0000BD0B0F1804F08D00E4FB84205D00E4F5A
:101AE000B84202D00D4FB84206D14FF6DF773940E9
:101AF00046F01007394305E04FF65F77394044F070
:101B00001007394302830184F0BD0000002C01401E
:101B1000003401400004004000080040000C004078
:101B2000F0B50C461546002200210026078C4FF622
:101B3000FF6C07EA0C070784828B018C4FF6FF7756
:101B400007EA04264FF60C773A404FF6FF7707EA8C
:101B500003172F433A43114FB8420ED0104FB842EB
:101B60000BD0B0F1804F08D00E4FB84205D00E4FC9
:101B7000B84202D00D4FB84206D14FF6FF57394058
:101B800046F48077394305E04FF2FF57394044F47B
:101B90008077394382830184F0BD0000002C01402E
:101BA000003401400004004000080040000C0040E8
:101BB000F0B50C461546002200210026078C4EF693
:101BC000FF7C07EA0C070784828B018C4FF6FF77B6
:101BD00007EA043640F6FF473A404FF6FF7707EA38
:101BE00005273A434FF6FF7707EA03373A43114F89
:101BF000B8420ED0104FB8420BD0B0F1804F08D091
:101C00000E4FB84205D00E4FB84202D00D4FB84229
:101C100006D14DF6FF77394046F48057394305E049
:101C200047F6FF57394044F4805739438283018493
:101C3000F0BD0000002C01400034014000040040D1
:101C400000080040000C00407FB505460C4601210D
:101C5000C802FFF70FFD01210420FFF70BFD174815
:101C600000F0CCF8ADF80850ADF804400020ADF815
:101C70000A00ADF806008DF80C0001A90F4800F02D
:101C80002FFB01210D4800F0A7F8012211460B4857
:101C900000F039FA19208DF8000003208DF80100BA
:101CA00001208DF802008DF803006846FFF7FCFB69
:101CB0000121024800F096F87FBD0000002C014091
:101CC00030B587B001212F4800F0ADF9002856D07B
:101CD00001212C4800F083F82B480088401C2A4939
:101CE00008800420FFF750FD284908600220FFF714
:101CF0004BFD40422649086026480068406A254955
:101D00000968096ACDE9001023480EC803A802F04B
:101D1000C3FBDDE90301CDE905011C48006805F0BE
:101D20001FF905461B4905980A682946FFF714FC68
:101D3000044605F0D9F8194908601548006805F00F
:101D40000FF90546164906980A682946FFF704FC6C
:101D5000044605F0C9F813490860084601680F48B1
:101D60000068FFF7AFFD02F005FB074800880A286E
:101D700004DB01F0EFFA00200349088000BF07B040
:101D800030BD0000002C01405A00002060000020FF
:101D90006400002070000020C80000206C000020BB
:101DA00074000020680000204FF08040008A4FF04F
:101DB0008040008A20F001004FF080410882704787
:101DC000044800880348008820F001000149088089
:101DD0007047000010080040CA4302827047CA439F
:101DE0000282704721B1028842F00102028004E0C1
:101DF00002884FF6FE731A400280704710B5044601
:101E00006848844208D10121C014FFF743FC002137
:101E1000E014FFF73FFCC4E0B4F1804F08D101218A
:101E20000846FFF717FC00210120FFF713FCB8E07C
:101E30005D48844208D101210220FFF70BFC0021FC
:101E40000220FFF707FCACE05848844208D101218A
:101E50000420FFF7FFFB00210420FFF7FBFBA0E0BD
:101E60005348844208D101210820FFF7F3FB0021E9
:101E70000820FFF7EFFB94E04E48844208D101218F
:101E80001020FFF7E7FB00211020FFF7E3FB88E0BD
:101E90004948844208D101212020FFF7DBFB0021C3
:101EA0002020FFF7D7FB7CE04448844208D1012181
:101EB0004014FFF7EFFB00216014FFF7EBFB70E02D
:101EC0003F48844209D10121C804FFF7E3FB002108
:101ED0004FF40020FFF7DEFB63E03A48844209D16B
:101EE00001210805FFF7D6FB00214FF48010FFF712
:101EF000D1FB56E03448844209D101214805FFF75F
:101F0000C9FB00214FF40010FFF7C4FB49E02F4844
:101F1000844208D101214020FFF79CFB0021402092
:101F2000FFF798FB3DE02A48844208D10121802038
:101F3000FFF790FB00218020FFF78CFB31E0254864
:101F4000844208D101218015FFF784FB0021A015F0
:101F5000FFF780FB25E02048844209D101210804D5
:101F6000FFF798FB00214FF48030FFF793FB18E058
:101F70001A48844209D101214804FFF78BFB002154
:101F80004FF40030FFF786FB0BE01548844208D180
:101F900001218804FFF77EFB00214FF48020FFF72A
:101FA00079FB10BD002C01400004004000080040F7
:101FB000000C0040001000400014004000340140BC
:101FC000004C014000500140005401400018004006
:101FD000001C00400020004000400140004401403F
:101FE00000480140F0B50C4615461E46002100226F
:101FF00000230189028B038C4FF6F8773940214387
:102000004FF6FC473A4040F201173A434FF6DD776E
:102010003B404FF6FF7707EA06172F433B4301810A
:1020200002830384F0BD30B5024600200023002463
:10203000158A05EA0103958905EA010413B10CB17B
:10204000012000E0002030BD70B505460C46244854
:1020500085420ED0234885420BD0B5F1804F08D081
:102060002148854205D02148854202D0204885423A
:1020700000D100E000BF208850B92389A288618880
:102080002846FFF7C1FCE188284600F0FCF825E06F
:10209000208804280AD12389A28861882846FFF76E
:1020A000F3FCE188284600F0F7F817E020880828BC
:1020B0000AD12389A28861882846FFF731FDE1888B
:1020C000284600F0F6F809E02389A28861882846AE
:1020D000FFF76EFDE188284600F0F4F870BD0000BF
:1020E000002C014000340140000400400008004082
:1020F000000C0040002101804180012181800021ED
:10210000C180018170471AB183890B43838102E04A
:1021100083898B438381704770B50024002200239C
:10212000058C4FF6FE7635400584028C8388048B3F
:102130004FF68F752C40B51E2C400D882C43751E14
:102140002A400D892A434D882A43144DA8420BD0BA
:10215000134DA84208D0134DA84205D0124DA842F5
:1021600002D0124DA84213D14FF6F7752A404D897F
:102170002A434FF6FB752A408D882A434FF6FF65A8
:102180002B404FF6FF552B408D892B43CD892B4398
:1021900083800483CD888586028470BD002C014035
:1021A000003401400040014000440140004801402B
:1021B0000A460021018B4FF6F77319401143018342
:1021C0007047000070B5002400220023058C4FF6F4
:1021D000EF7635400584028C8388048B48F6FF75C2
:1021E0002C404FF6FF452C400D884FF6FF7606EA4F
:1021F00005252C434FF6DF752A400D8906EA0515A3
:102200002A434D8806EA05152A43154DA84202D0F7
:10221000144DA8421DD14FF67F752A404D894FF6C7
:10222000FF7606EA05152A434FF6BF752A408D88CA
:1022300006EA05152A434FF6FF352B404FF2FF758E
:102240002B408D8906EA85052B43CD8906EA850555
:102250002B4383800483CD880587028470BD0000F2
:10226000002C0140003401400A460021018B4FF24E
:10227000FF7319404FF6FF7303EA022319430183EA
:10228000704781847047028B4FF6F3731A400283C4
:10229000028B0A4302837047028B4FF2FF331A40CE
:1022A0000283028B4FF6FF7303EA01231A43028372
:1022B0007047828B4FF6F3731A408283828B0A43F6
:1022C00082837047828B4FF2FF331A408283828B66
:1022D0004FF6FF7303EA01231A438283704700001D
:1022E000002202881D4B98420ED01D4B98420BD005
:1022F000B0F1804F08D01B4B984205D01A4B984242
:1023000002D01A4B984204D14FF68F731A404B8873
:102310001A43174B984207D0164B984204D04FF6F9
:10232000FF431A40CB881A4302808B8883850B8831
:1023300003850A4B98420BD0094B984208D00E4BAC
:10234000984205D00D4B984202D00D4B984201D1D6
:102350000B7A03860123838270470000002C014022
:10236000003401400004004000080040000C004020
:1023700000100040001400400040014000440140B3
:10238000004801404FF6FF71818000210180C1802B
:10239000418001727047000010B540F225510B4892
:1023A00000F02BF880B1094800F0E2F8C4B2FF2C2D
:1023B0000AD101224021054800F016F8002240F21F
:1023C0002551024800F043F810BD000000380140DC
:1023D00021B1828942F40052828104E082894DF663
:1023E000FF731A40828170471AB1838A0B4383823C
:1023F00002E0838A8B438382704770B502460024D3
:1024000000230025002040F66A16B14200D100BF2B
:10241000C1F3421501F01F03012606FA03F3012D53
:1024200002D19689334006E0022D02D1168A33404C
:1024300001E0968A33400C12012606FA04F416884D
:10244000344013B10CB1012000E0002070BDF0B5A4
:102450000346002400260025002040F66A17B942F2
:1024600000D100BF1846C1F3421401F01F06012736
:1024700007FA06F5012C01D10C3004E0022C01D141
:10248000103000E014301AB107682F43076002E0F3
:102490000768AF430760F0BD2DE9F04786B00546F9
:1024A0000E460024A24600BFA1460027B08900B115
:1024B00000BF2F462C8A4CF6FF700440F08804437E
:1024C0002C82AC894EF6F3100440B0883189084361
:1024D000718908430443AC81AC8A4FF6FF40044045
:1024E000B0890443AC8201A8FFF7E4F81F48874293
:1024F00002D1DDF810A001E0DDF80CA0A88900F4FD
:10250000004040B10AEBCA0000EB0A1031684900F4
:10251000B0FBF1F807E00AEBCA0000EB0A103168E3
:102520008900B0FBF1F86420B8FBF0F00401200949
:10253000642101FB1089A88900F4004040B13220D9
:1025400000EBC900B0FBF1F000F00700044308E025
:10255000322000EB09106421B0FBF1F000F00F0015
:1025600004432C8106B0BDE8F0870000003801402C
:1025700001468888C0F30800704700BFFEE74900A5
:1025800050EAC12018BF04204A0D18BF40F00100D6
:1025900040F2FF72B2EB515F08BF40F00200012829
:1025A00008BF0520704700002DE9F74F144694B08E
:1025B0000021C4E902111599079121F00045C9498C
:1025C0008D4206DC1599C4E9000117B00020BDE872
:1025D000F08FC549DFF814A3A9423CDD0799C44E2A
:1025E0000029C44FC44A1599534619DD04F002FA74
:1025F000554506D0C14AC24B04F0FCF9C4E90001BC
:102600000AE04FF0D352BE4B04F0F4F932463B4699
:1026100004F0F0F9C4E9000117B00120BDE8F08F23
:1026200003F096FD554506D0B44AB54B03F090FD36
:10263000C4E900010AE04FF0D352B14B03F088FD2A
:1026400032463B4603F084FDC4E9000117B04FF069
:10265000FF30BDE8F08FAB49A942159978DB21F036
:10266000004183468846A84AA84B03F0D3FF0022C6
:10267000A74B03F06DFD03F073FF099003F09FFF7C
:1026800006460F469C4A534603F0C4FF43465A464B
:1026900004F0BEF880468A46984A994B304639463F
:1026A00003F0B8FF2A0D01250B924246534604F071
:1026B000AFF8032DC4E9000139D00B98C1F30A51DA
:1026C000401A05EB45111139814230DA9148C34671
:1026D000784400EB0510CDF80CA00C90D0E9002355
:1026E0003046394603F096FF02460B4604910690A9
:1026F0005846039904F07EF980468A4602460B4606
:102700005846039904F076F9049B069A04F072F98E
:1027100083460C9803913946D0E90223304603F0F2
:1027200079FF5A46039B04F065F96D1CBDE70798D5
:102730000028A2BF099817B0BDE8F08F616881F04A
:1027400000416160099817B04042BDE8F08FFFE793
:1027500084461598C1F31301C0F30A50A0F2F53076
:102760004FEA601800F01F06C6F120001390002009
:102770000690079041F4801E05206D4676B1664AAA
:1027800008EB00017A4452F8213002EB8101B3409A
:102790004A68139922FA01F1194305E05F4908EBF1
:1027A0000002794451F82210A1FB0E27A1FB0C1363
:1027B0001A449A4234BF0123002303EB070A05EBB6
:1027C0008003D3E901B70F448F4234BF01210021B8
:1027D00093448B4411B1934502D903E0934501D250
:1027E000012100E00021C3E901B7514445F8201060
:1027F000011EA0F10100C1DC0298059F00F100500C
:10280000800F12900298DDE90356800003F0D7FE96
:10281000834628460D9103F0E9FE6FF01D0204F097
:10282000A4FDCDE90E01304603F0E0FE6FF03D025D
:1028300004F09BFD80468A46384603F0D7FE6FF0D1
:102840005D0204F092FD074642465346119103F0A3
:102850007FFCDDE90E2303F07BFC5A460D9B03F061
:1028600077FC00250E465A4628460D9B04F0C2F818
:10287000DDE90E2304F0BEF84246534604F0BAF8F0
:102880003A46119B03F0C4FFDFF898A0244A534650
:1028900003F0C0FE07468846234A244B31462846AB
:1028A00003F0B8FE3A46434603F052FC074688461A
:1028B0004FF0A84253463146284603F0ABFE3A4655
:1028C000434603F045FC159A12F0004F04D0129ACB
:1028D00081F0004152421292C4E90001129817B0EF
:1028E000BDE8F08FFB21E93F7CD90240FB21F93F95
:1028F0007370032E8A19A33B000040543163621A9F
:1029000061B4D03DFB21394183C8C96D305FE43FDC
:102910000000E03F9C5A0000185A0000FA590000DD
:10292000182D4454FB21F93D3326A611460B113CCA
:102930002DE9FF4D21F0004807460C46B8F1795FBC
:1029400008DA03F00DFE002801BF0020324904B070
:10295000BDE8F08D3A4623461046194603F05AFE6C
:10296000054602462D480E460B460621784400F0E7
:102970005DF82A46334603F04DFEDDE90223824628
:102980008B463846214603F045FE04460F46524624
:102990005B462846314603F03DFE22463B4604F0A6
:1029A00029F807468A464FF0FF322846314604F0A0
:1029B000DCFC1B4A90450ADA3A46534604F01AF802
:1029C00004B00022BDE8F04D134B03F021BF154ABF
:1029D0004245A8BFA8F500154FF00004B8BF124D3E
:1029E00022462B4604F006F80646884622462B4629
:1029F0000020094903F0FEFF04460D463A465346BF
:102A00003046414603F0F6FF04B022462B46BDE8AF
:102A1000F04D03F0FDBE00000000F03FC85700007D
:102A20003333D33F0000E93F0000D23F2DE9F041AE
:102A30004F1E00EBC7010446D1E9000115461E46B2
:102A400037F006020DD02A46334603F0E3FD7F1E21
:102A500004EBC703D3E9002303F07AFB37F0060247
:102A6000F1D1022F25D0042F13D0062F18BFBDE8B7
:102A7000F0812A46334603F0CDFDD4E90A2303F062
:102A800067FB2A46334603F0C5FDD4E9082303F06B
:102A90005FFB2A46334603F0BDFDD4E9062303F06D
:102AA00057FB2A46334603F0B5FDD4E9042303F06F
:102AB0004FFB2A46334603F0ADFDD4E9022303F071
:102AC00047FB2A46334603F0A5FDD4E90023BDE8C1
:102AD000F04103F03DBB00002DE9FF4D054621F01C
:102AE000004084B00C46B0F1795F0BDA2846FFF75E
:102AF00046FD042808BF00F071F8284608B02146BA
:102B0000BDE8F08D2A460B46104603F083FD0646CD
:102B10000F462A46234603F07DFD804626488A4616
:102B200032463B4605217844FFF780FF83461098E4
:102B3000029160B3214A224B4046514603F06AFDA0
:102B4000CDE900015A4640465146029B03F062FD22
:102B500082468846DDE906014FF0FF3204F005FCAD
:102B60005246434603F046FF32463B4603F052FDD1
:102B7000DDE9062303F03EFFDDE9002303F03AFF21
:102B800008B02A462346BDE8F04D03F041BE0B468F
:102B90005A463046394603F03DFD084A084B03F0DB
:102BA000D7FA4246534603F035FD08B02A4623467D
:102BB000BDE8F04D03F0CCBA0E570000495555550D
:102BC0005555C5BF012204F0D0BB03F0C1BA0022A5
:102BD00013461046114603F06BBB0000024A00206A
:102BE000110704F0C2BB000001FDFFFF30380A28C6
:102BF00001D2012070470020704700BF70470000DD
:102C00002DE9FE4F06460F460025684601F006FBFB
:102C1000002442E056F8240057F82410A0EB010AE3
:102C2000BAF1000F01DB514601E0CAF1000108468C
:102C300004F096F983464FF08F4104F05FF8804628
:102C40005DF82400002104F01BF916D05DF8241073
:102C5000404604F053F882464FF07E5104F0DEFA0D
:102C6000814629F0004A0F48416A504604F0A4FA10
:102C700012D20120A04005430EE00A48C169404637
:102C800004F09AF905D30748016A404604F094FA23
:102C900002D20120A0400543641C032CBADB284665
:102CA000BDE8FE8F207400082DE9F04D8D4F21F016
:102CB000004A86B005460C46BA452ADBAAEB070057
:102CC00028430AD08848824501DC1AD1CDB106B02C
:102CD0002846BDE8F04DFFF775BF844A844B28466F
:102CE00003F098FC07460E46824A834B284621464D
:102CF00003F090FC06B03A463346BDE8F04D03F0D1
:102D000027BA0120FDF76BFC06B0BDE8F04DFFF7D8
:102D10005EBF7A48824542DABAF1795F0BDA28461B
:102D2000FFF72DFC042808BFFFF758FF284606B020
:102D30002146BDE8F08D2A460B46104603F06AFC9A
:102D4000834602466E480E460B4606217844FFF73E
:102D50006DFE5A46334603F05DFC804669488A465C
:102D60005A46334604217844FFF760FE5A463346FC
:102D700003F050FC00223B4603F0EAF902460B4602
:102D80004046514603F094FA2A46234603F042FC9B
:102D900006B02A462346BDE8F04D03F0D9B92846CF
:102DA00024F0004100223D463B4603F031FD4FF048
:102DB000FF3204F0DAFA0646024653480F460B4645
:102DC00006217844FFF732FE32463B4603F022FCF0
:102DD000CDE900014D4832463B4604217844FFF7D7
:102DE00025FE32463B4603F015FC00222B4603F03D
:102DF000AFF9834602913046394603F0FBF880462E
:102E000043480D46504517DCDDE900015A46029B58
:102E100003F04EFA42462B4603F0FCFB42462B469B
:102E200003F096F9012204F0A0FA304A304B03F087
:102E3000E1FD304A304B4CE04FF0000A52460B4661
:102E4000404603F085F9CDE9031052462B46104663
:102E5000194603F0DFFB32463B4603F0D9FCDDE9BF
:102E6000033203F025FA06460F46DDE900015A4613
:102E7000029B03F01DFA8346009101223046394639
:102E800004F073FA194A1A4B03F0C2FC06460F46C7
:102E900001224046294604F068FA5A46009B03F096
:102EA000B9FB32463B4603F0A5FD06460F4601221C
:102EB0005046294604F059FA0E4DDFF858802A464C
:102EC000434603F0A5FC32463B4603F0A1FC2A46EC
:102ED000434603F09DFC002CD8BF81F0004106B0B2
:102EE000BDE8F08D0000F03F0000F07F075C143378
:102EF00026A6913C182D4454FB21F93F0000E03FE9
:102F000000530000165300008A520000A052000037
:102F10003333EF3FFB21E93F2DE9F84F04460D46DF
:102F200021F0004000917349814211DC72498842CE
:102F300001DC06D12CB120462946BDE8F84FFFF749
:102F400041BE6E48002DCCBF6D496E49BDE8F88F7B
:102F50006D49814211DD6D498142D8BF4FF0FF3686
:102F60006DDD20462946FFF70AFB042808BFFFF75E
:102F700035FE20462946BDE8F88F6549654F25F0A6
:102F80000045814233DD6449814219DD0026324625
:102F90004FF080432046294603F0DAF880468A46FF
:102FA00001222046294604F0E0F900223B4603F0C6
:102FB00021FD4246534603F07BF904460D463EE0B0
:102FC00001260022BA463B462046294603F0C0F8B7
:102FD00080460F46002253462046294603F00AFD4C
:102FE00042463B4603F064F904460D4627E04B4950
:102FF00081421BDDDFF828A102260022534620462D
:10300000294603F007FB00223B4603F0A1F8804667
:103010000F46002253462046294603F0EBFC424669
:103020003B4603F045F904460D4608E003262246D8
:103030002B4600203B4903F03BF904460D4622464F
:103040002B461046194603F0E5FA8B4682460246A7
:103050000B4603F0DFFA07460246334888460B4624
:1030600006217844FFF7E2FC52465B4603F0D2FAB1
:1030700082462E488B463A46434605217844FFF760
:10308000D5FC3A46434603F0C5FA02460B46002EED
:10309000504659460CDA03F05BF822462B4603F003
:1030A000B9FA01B022462B46BDE8F04F03F0B0BBA1
:1030B00003F04EF822462B4603F0ACFA1C4A7A4441
:1030C00002EBC603D3E9002303F094FC22462B460F
:1030D00003F090FC174A7A4402EBC603D3E90023BD
:1030E00003F096FB009A002AB8BF81F00041BDE8CA
:1030F000F88F0000000010440000F07F182D4454A9
:10310000FB21F93FFB21F9BF0000DC3F0000203E1E
:103110000000F33F0000F03F0000E63F0080034066
:103120000000F83F0000F0BFA25000006050000017
:10313000FE4F0000C64F00002DE9F04D9446CCF143
:10314000000423F000464CEA0404524F46EAD474CB
:103150009A46884621F00042BC4206D8454240EAE1
:10316000050442EAD474BC4204D9BDE8F04D62467D
:10317000FFF72BBDAAF14055A5F17F6555EA0C0478
:103180000BD0022404EAAA74434DDFF810E144EAAC
:10319000D87452EA000B04D00CE0BDE8F04DFFF704
:1031A000BBBE002C14BF012CBDE8F08D022C30D02A
:1031B000032C32D056EA0C0B0AD0BE4220D1BA42C0
:1031C00009D126F0804622F080423346114617E0AE
:1031D00000291ADB25E0DFF8C8B0FB44002C04BF4F
:1031E000DBE90001BDE8F08D012C02BFDBE9000145
:1031F00081F00041BDE8F08D022C0AD0032C0CD0E8
:10320000BA4212D1B8F1000F0BDA23482549BDE8C4
:10321000F08D28462449BDE8F08D28467146BDE86A
:10322000F08D1D482149BDE8F08D921B12153C2AF6
:10323000C4BF19481D490EDCBAF1000FBEBF12F120
:103240003C0F0020014606DB624603F031F821F016
:103250000041FFF761FE002C08BFBDE8F08D012C96
:1032600004BF81F00041BDE8F08D114A114B022CE2
:1032700007D003F0BFFB2A46BDE8F04D0A4B03F030
:10328000B9BB03F0B7FB2A46BDE8F04D064B03F08F
:10329000BFBA00000000F07F182D4454FB2109C084
:1032A0008A4F0000FB21F9BFFB210940FB21F93FB8
:1032B000075C143326A6A13C00B5244B21F0004244
:1032C00087B09A42DCBF0022134629DD204B9A4288
:1032D00008D140B94FF00100FDF781F9FFF777FC05
:1032E00007B000BD03DBFFF76DFC07B000BD02AA0D
:1032F000FFF75AF910F0030104BF0DF1080C9CE828
:103300000F000DD0012001290ED0022914D00DF19B
:10331000080C00909CE80F00FFF7DEFB07B000BD33
:10332000FFF706FB07B000BD0DF1080C00909CE80C
:103330000F00FFF7D1FB05E00DF1080C9CE80F0032
:10334000FFF7F6FA07B081F0004100BDFB21E93F2D
:103350000000F07F2DE9F041624800686249086092
:10336000624800684860624801686248006803F08B
:1033700057FC04464FF0804103F0C0FC5A49886076
:103380000020C8605B4801685948006803F046FFA8
:10339000804603F019FC0646574A584B02F088FF56
:1033A000044602F0A3FE5049086155480068486190
:1033B000AA205449087048704B48007888704A48E1
:1033C0004078C8704848807808714748C07848718C
:1033D00045480079887144484079C87142488079ED
:1033E00008724148C07948723F48007A88723E4866
:1033F000407AC8723C48807A08733B48C07A487368
:103400003948007B88733848407BC8733648807BD6
:1034100008743548C07B48743348007C887432484F
:10342000407CC8743048807C08752F48C07C487543
:103430002D48007D88752C48407DC8752A48807DC0
:1034400008762948C07D487608468078C978484083
:103450002C49097948402B494979484029498979BB
:1034600048402849C97948402649097A48402549B1
:10347000497A48402349897A48402249C97A4840D4
:103480002049097B48401F49497B48401D49897BA9
:1034900048401C49C97B48401A49097C48401949A1
:1034A000497C48401749897C48401649C97C4840B6
:1034B0001449097D48401349497D48401149897D97
:1034C00048401049C97D48400E49097E48400D4991
:1034D000497E48400B4988760B48FDF7B0FABDE8B5
:1034E000F08100004C000020B000002050000020BF
:1034F00044000020400000209A9999999999C93F69
:103500003C000020D4000020440002402DE9F0419E
:103510000446E07800F0C006E07800F03F056078EF
:1035200000F0010098B1EF102846E91705EB517142
:10353000C910A5EBC101491C01F0FF080B48006848
:1035400020B10A48414602683846904700BF60787B
:1035500000F0080030B10548406818B1B011034AC6
:10356000516888470020BDE8F0810000A0010020DC
:1035700010B56FF00400FEF701FA0A4800680A4926
:10358000B0FBF1F0094908700846007800EB4001F3
:10359000C1EBC0104FF6FF7101EAC000044908807A
:1035A00010BD00000000002000127A00140000206E
:1035B000160000200146114A12884A434FF0E023CA
:1035C0005A6100229A611A46126942F001021A6198
:1035D00000BF4FF0E022106900F001021AB100F4C0
:1035E0008032002AF5D04FF0E022126922F0010269
:1035F0004FF0E0231A6100229A6170471600002004
:103600000146114A12784A434FF0E0235A610022E2
:103610009A611A46126942F001021A6100BF4FF026
:10362000E022106900F001021AB100F48032002A91
:10363000F5D04FF0E022126922F001024FF0E023B2
:103640001A6100229A6170471400002038B50446C0
:1036500064B120208DF8000028208DF80100302072
:103660008DF8020038208DF8030004E0A322042125
:103670006846FCF705FF6A46042140F69E2002F0EA
:103680008FFB01F079FF38BD3EB5044602208DF86E
:103690000000CA208DF80100E3208DF80200092007
:1036A0008DF803006A460421682002F079FBA3200C
:1036B0008DF8000004F0400048B1C0208DF80100F2
:1036C000C8208DF80200C2208DF8030006E0A32078
:1036D0008DF801008DF802008DF8030004F4C0702D
:1036E00048B1C4208DF80400CC208DF80500C62018
:1036F0008DF8060006E0A3208DF804008DF8050083
:103700008DF80600A3208DF807008DF808008DF8CD
:1037100009006A460A2140F6A72002F041FB04F0A6
:10372000030018B120208DF8000002E0D8208DF8A9
:1037300000006A46012140F6B62002F031FB04F099
:10374000200018B1012000F0ADF802E0002000F0E8
:10375000A9F804F4C07008B304F4807060B1B2201A
:103760008DF800008B208DF80100B6208DF8020046
:103770009B208DF803000BE0B0208DF80000802026
:103780008DF80100B4208DF8020090208DF8030020
:103790006A46042140F6A22002F002FB04F0010078
:1037A00020B3F8208DF800006A4601214FF40B6029
:1037B00002F0F6FAFA21072000F02CFC072000F0B6
:1037C000F3FB012000F013FC642000F0F3FC4FF445
:1037D000FA7000F002FDC821304800F0A3FB282059
:1037E00000F0BCFB0A2000F0CCFB08E0D8208DF8EC
:1037F00000006A4601214FF40B6002F0D1FA04F098
:10380000020018B1D9208DF8000002E0D8208DF810
:1038100000006A46012140F23D7002F0C1FA04F056
:10382000040018B1012000F069F802E0002000F067
:1038300065F804F0100018B10120FFF707FF02E05F
:103840000020FFF703FF44F008001549488101F00C
:1038500093FE00201249887304F0400018B1084616
:10386000807B801D887304F4C07020B10C48807B7D
:10387000801D0B49887304F0140020B10848807B38
:1038800010300749887304F0030020B10448807B9E
:10389000001D0349887300203EBD000009E3CA02F1
:1038A000A00100203EB504466CB10EA1D1E9002074
:1038B0008968CDE9002002916A4609214FF497609A
:1038C00002F06EFA3EBD0AA2D2E900109268CDE97C
:1038D000010200916A4609214FF4976002F060FAF4
:1038E000F0E70000B8AAB38DB4980D355D00000074
:1038F000B8AAAAAAB088C3C5C700000038B5044654
:1039000064B1C0208DF80000C2208DF80100C420F1
:103910008DF80200C6208DF8030004E08B220421FC
:103920006846FCF7ADFD6A46042140F6982002F097
:1039300037FA01F021FE38BD10B5C8234FF480627C
:10394000024940F6F63001F0ABFC10BD48740008A7
:103950002DE9F04F8DB00746884615469946DDE9BA
:10396000166B0024002030806B49887B5A4605A9DD
:1039700001F062FD18B1601E0DB0BDE8F08F664821
:10398000807A00F01400002867D09DF8140000062B
:103990009DF8151040EA01409DF8161040EA0120FC
:1039A0009DF81710084328609DF8180000069DF840
:1039B000191040EA01409DF81A1040EA01209DF8D4
:1039C0001B10084368609DF81C0000069DF81D1040
:1039D00040EA01409DF81E1040EA01209DF81F10AA
:1039E0000843A8609DF8200000069DF8211040EAD9
:1039F00001409DF8221040EA01209DF82310084361
:103A0000E86004F11000C4B22868001401906868EE
:103A100000140290A86800140390E8680014049051
:103A200001984043029901FB0100039901FB010049
:103A3000049901FB010ABAF1706F02DBBAF1885FE9
:103A400005DD01F099FD00203080401E94E7B6F9B5
:103A5000000040F48070308000BF2F48807A00F072
:103A6000400020B305A9601C085C095D40EA012004
:103A700000B2A8F8000005A9E01C095C05AAA01C7A
:103A8000105C41EA002000B2A8F8020005A9601D00
:103A9000095C201D105C41EA002000B2A8F8040077
:103AA000A01DC4B2B6F9000040F0080030801A48EA
:103AB000408900F4C07008B305A9601C085C095D6A
:103AC00040EA012000B2388005A9E01C095C05AA83
:103AD000A01C105C41EA002000B2788005A9601D9E
:103AE000095C201D105C41EA002000B2B880A01DD6
:103AF000C4B2B6F9000040F0700030800648807A09
:103B000000F0030018B105A90819FFF7FFFC4846AB
:103B100001F06EF800202FE7A001002070B588B0FA
:103B2000064601A801F010FABDF804000021C903FF
:103B300041EA5045C4034448007A00F0030056F8B7
:103B4000200005904048007A00F0040010B105986C
:103B5000404205903C48007AC0F3C10056F820006E
:103B600006903948007A00F0200010B106984042D3
:103B700006903548007AC0F3811056F8200007906F
:103B80003148008900F4807010B1079840420790D6
:103B90000598C117A0FB042301FB043100FB0510AD
:103BA000810041EA927005900698C117A0FB04239A
:103BB00001FB043100FB0510810041EA9270069080
:103BC0000798C117A0FB042301FB043100FB05107B
:103BD000810041EA927007900598000E8DF8080068
:103BE0000598000C8DF809000598000A8DF80A0068
:103BF0000598C0B28DF80B000698000E8DF80C00E9
:103C00000698000C8DF80D000698000A8DF80E003D
:103C10000698C0B28DF80F000798000E8DF81000BE
:103C20000798000C8DF811000798000A8DF8120013
:103C30000798C0B28DF8130002AA0C214FF425702A
:103C400002F0AEF808B070BDA001002030B585B01C
:103C5000044616A207CA02AB07C3C82C03DD4FF007
:103C6000FF3005B030BDC82090FBF4F0401E85B297
:103C7000280A8DF80000E8B28DF801006A4602219A
:103C800040F2162002F08CF810B14FF0FF30E8E758
:103C900002AA0C2140F6C12002F082F810B14FF0C8
:103CA000FF30DEE7044884810020DAE7FEF2ABC48F
:103CB000AAF1DFDFBBAFDFDFA00100201FB50446A4
:103CC0004848007A00F0030054F82000019045486D
:103CD000007A00F0040010B1019840420190414880
:103CE000007AC0F3C10054F8200002903D48007AE9
:103CF00000F0200010B10298404202903948007A4A
:103D0000C0F3811054F8200003903648008900F475
:103D1000807010B10398404203903349019880FBB2
:103D20000101800F40EA810001902F49029880FB39
:103D30000110820042EA917002902B49039880FBA7
:103D40000110820042EA917003900198000E8DF8F4
:103D500000000198000C8DF801000198000A8DF810
:103D600002000198C0B28DF803006A4604214FF4A6
:103D7000747002F015F818B14FF0FF3004B010BDA8
:103D80000298000E8DF800000298000C8DF80100DA
:103D90000298000A8DF802000298C0B28DF8030064
:103DA0006A4604214FF4757001F0FAFF10B14FF02C
:103DB000FF30E3E70398000E8DF800000398000C35
:103DC0008DF801000398000A8DF802000398C0B234
:103DD0008DF803006A4604214FF4767001F0E0FF8D
:103DE000CCE70000A001002009E3CA0210B586B0AC
:103DF000044647A00068039046A00068029046A0D1
:103E00000068019045A00068009004F0030003A939
:103E1000085C8DF8140003A8C4F3C101405C8DF860
:103E2000150003A8C4F38111405C8DF8160004F05E
:103E3000030002A9085C8DF8100002A8C4F3C101B8
:103E4000405C8DF8110002A8C4F38111405C8DF82C
:103E5000120005AA032140F2264001F0A1FF18B18B
:103E60004FF0FF3006B010BD04AA032140F22A40F3
:103E700001F096FF10B14FF0FF30F3E70198059085
:103E80000098049004F0040058B19DF8140040F02C
:103E900001008DF814009DF8100040F001008DF82D
:103EA000100004F0200058B19DF8150040F001000A
:103EB0008DF815009DF8110040F001008DF81100FB
:103EC00004F4807058B19DF8160040F001008DF8A0
:103ED00016009DF8120040F001008DF8120005AAAE
:103EE00003214FF4886001F05BFF10B14FF0FF3009
:103EF000B8E704AA032140F2314001F051FF10B1AC
:103F00004FF0FF30AEE7064804810020AAE700002A
:103F10004CCD6C000CC92C00365676002646660047
:103F2000A0010020F8B505460E464FF47A7095FBC7
:103F3000F0F000FB06F4200E8DF80000200C8DF848
:103F40000100200A8DF80200E0B28DF803006A46F5
:103F500004214FF4AE7001F023FFF8BD38B50446DC
:103F6000052094FBF0F084B220128DF80000E0B23E
:103F70008DF801006A4602214FF4AD7001F010FF88
:103F800038BD38B50446052094FBF0F084B2201209
:103F90008DF80000E0B28DF801006A4602214FF46E
:103FA000AC7001F0FDFE38BD38B50446002000902D
:103FB00004F0010020B19DF8000040F030000090B6
:103FC00004F0020020B19DF8000040F00C000090C9
:103FD00004F0040020B19DF8000040F003000090C0
:103FE0006A4601214FF4A47001F0DAFE38BD38B5FD
:103FF0000446012C01DA012402E0042C00DD042433
:10400000601EC0B200906A46012140F24F1001F0DC
:10401000C7FE38BD2DE9FC4706460F4606F00700EF
:1040200010B1B7F5C86F03DD4FF0FF30BDE8FC8776
:10403000384602F0ADFF8146594902F05FFE8046E6
:10404000684600F05BFF9DF80000022806D00428B7
:1040500016D0082826D0102848D135E04FF08D41E1
:10406000404602F0DDFF814602F05AFF84B24D491E
:10407000404602F0D5FF814602F052FF85B238E09B
:104080004FF08C41404602F0CBFF814602F048FFE2
:1040900084B24549404602F0C3FF814602F040FF2A
:1040A00085B226E04FF08B41404602F0B9FF8146D1
:1040B00002F036FF84B23D49404602F0B1FF81462E
:1040C00002F02EFF85B214E04FF08A41404602F024
:1040D000A7FF814602F024FF84B23549404602F032
:1040E0009FFF814602F01CFF85B202E04FF0FF30D7
:1040F0009CE700BF20128DF80400E0B28DF80500A7
:1041000028128DF80600E8B28DF8070006F00100CD
:10411000A0B101AA02214FF4EA7001F041FE10B1F2
:104120004FF0FF3082E70DF1060202214FF492704A
:1041300001F036FE10B14FF0FF3077E706F00200D5
:10414000A0B101AA02214FF4EC7001F029FE10B1D8
:104150004FF0FF306AE70DF1060202214FF4947030
:1041600001F01EFE10B14FF0FF305FE706F00400D3
:10417000A0B101AA02214FF4EE7001F011FE10B1BE
:104180004FF0FF3052E70DF1060202214FF4967016
:1041900001F006FE10B14FF0FF3047E7002045E781
:1041A00000004843000040460000C0450000404574
:1041B0000000C04438B50446052094FBF0F085B2F9
:1041C00028128DF80000E8B28DF801006A4602213D
:1041D0004FF4EF7001F0E4FD38BD38B5044605201A
:1041E00094FBF0F085B228128DF80000E8B28DF84B
:1041F00001006A4602214FF4ED7001F0D1FD38BD97
:1042000000BF054A128802F04002002AF9D0C2B26B
:10421000014B1B1D1A807047003801407CB50546D4
:1042200028494968087801AB04220D21FDF739F8C7
:1042300008B107207CBD9DF80700C0F301109DF870
:10424000041001F0E00140EAE1008DF800009DF863
:104250000700C0F381009DF8051001F0E00140EA7D
:10426000E1008DF801009DF8070000F003009DF8C3
:10427000061001F0E00140EAE1008DF802000024A0
:104280001CE01DF8040018B9002045F8240013E0D4
:104290000D4845F8240006E055F824000B4902F0CB
:1042A000BFFE45F824001DF80400401EC0B20DF802
:1042B00004000028F0D100BF601CC4B2032CE0DB76
:1042C0000020B7E7780000207B14AE3E1D5A843FE3
:1042D00030B501460022002300240878FF281AD1B7
:1042E00048788D786840CD7868400D7968404D7980
:1042F00068408D796840CD7968400D7A68404D7A84
:1043000068408D7A6840CD7A68400D7B684043B242
:10431000487B44B203E04FF0FF32D0B230BD9C4244
:1043200003D04FF0FF32D0B2F8E711480025056006
:104330004560856048780E4D287088786870C87828
:10434000A8700879E870487928718D790848457116
:10435000CD7985710D7AC571487A054D28728D7AAF
:1043600003484572CD7A85720D7BC572D0B2D5E710
:10437000C80000202DE9F04F87B03D48006802F0EA
:104380001EF906463B4A3C4B02F044F9044601F054
:10439000ADFE83463948006802F011F90646354AF9
:1043A000354B02F037F9044601F0A0FE8246514633
:1043B000584602F035FC04464FF0804102F09EFC66
:1043C00006902F480168584602F098FC2D49086075
:1043D0002B480168504602F091FC2B4908602B489D
:1043E000006802F0F1FB0646FEF766FFCDE900012A
:1043F000069802F0E9FB8046DDE9002302F00AF9A5
:1044000004460D462248006802F0DEFB22462B4699
:10441000CDE9020101F09CFECDE9040101F066FE48
:104420001B4908601948006802F0CEFBCDE9000185
:1044300001F090FDCDE90201069802F0C5FB0646A9
:10444000DDE9022302F0E6F804460D461148006853
:1044500002F0BAFB804622462B4601F079FECDE9F8
:10446000040101F043FE0B49086007B0BDE8F08F7E
:1044700060000020F700F1C43954063F64000020BA
:104480005400002040000020440000203C00002098
:104490004C000020500000202DE9FF4782B0044668
:1044A000DDE90E56002000900190284602F058FDEC
:1044B00081464FF08041039802F0B2FD82464946A2
:1044C00002F0AEFD0746304602F04AFD82460599ED
:1044D00002F0A6FD81464FF0804102F00FFC8046BD
:1044E0004146384602F09AFE00904146384602F0B6
:1044F00097FB0190DDE90001C4E9000106B0BDE8C9
:10450000F08700002DE9F04F87B005460C46914634
:1045100001208DF8100000208DF81100FE4A12686D
:10452000917CFD4A5268107804AB0222FCF75FFFD1
:1045300020B14FF0FF3007B0BDE8F08FC820FFF783
:1045400039F800208DF81000F34A1268D17BF24A46
:104550005268107804AB0122FCF749FF10B14FF00C
:10456000FF30E8E7EC4A12685179EB4A526810785C
:1045700004AB0122FCF73BFF10B14FF0FF30DAE74C
:10458000E54A1268917CE44A5268107804AB012233
:10459000FCF72DFF10B14FF0FF30CCE7DE4A126878
:1045A000D17DDD4A5268107804AB0122FCF71FFF71
:1045B00010B14FF0FF30BEE7D74A12681179D64AE2
:1045C0005268107804AB0122FCF711FF10B14FF0D4
:1045D000FF30B0E70C208DF81000CF4A1268117937
:1045E000CD4A5268107804AB0122FCF700FF10B1ED
:1045F0004FF0FF309FE70F20FEF7DCFFC648806AD0
:10460000407A8DF81000C44A12689178C24A526804
:10461000107804AB0122FCF7EAFE10B14FF0FF3036
:1046200089E7BD48806A007A8DF81000BA4A12689E
:104630005178B94A5268107804AB0122FCF7D7FED2
:1046400010B14FF0FF3076E7B9F1000F07D0B24854
:10465000806A807A40F0E0008DF8100004E0AE48F7
:10466000806A807A8DF81000AB4A12689179AA4A64
:104670005268107804AB0122FCF7B9FE10B14FF07C
:10468000FF3058E7B9F1000F07D0A348806AC07A1D
:1046900040F0E0008DF8100003E0A048C07A8DF8EB
:1046A00010009D4A1268D1799B4A5268107804AB79
:1046B0000122FCF79CFE10B14FF0FF303BE7B9F14F
:1046C000000F02D0C820FEF775FF40208DF81000C3
:1046D000914A12681179904A5268107804AB01220D
:1046E000FCF785FE10B14FF0FF3024E778208DF8FD
:1046F0001000894A12685179874A5268107804ABD1
:104700000122FCF774FE10B14FF0FF3013E783492C
:104710008889FEF74FFF00208DF810007E4A12684E
:1047200051797D4A5268107804AB0122FCF75FFE94
:1047300010B14FF0FF30FEE6774A1268917A764A60
:104740005268107804AB0222FCF7ABFD10B14FF0B9
:10475000FF30F0E69DF811009DF8101040EA012BA3
:104760000C209BFBF0F0C6B20020A86068602860B7
:10477000A06060602060824665E0674A1268D17A76
:10478000654A5268107804AB0C22FCF78AFD10B120
:104790004FF0FF30CFE69DF811009DF8101040EA71
:1047A000012000B2ADF808009DF813009DF812102A
:1047B00040EA012000B2ADF80A009DF815009DF80E
:1047C000141040EA012000B2ADF80C00BDF9081049
:1047D000206808442060BDF90A10606808446060E1
:1047E000BDF90C10A0680844A0609DF817009DF862
:1047F000161040EA012000B2ADF800009DF8190043
:104800009DF8181040EA012000B2ADF802009DF8B2
:104810001B009DF81A1040EA012000B2ADF8040018
:10482000BDF90010286808442860BDF902106868C6
:1048300008446860BDF90410A8680844A8600AF13B
:10484000010000F0FF0AB24597DB3448D0F800C001
:104850002868C117090441EA104107046246002391
:104860003846FBF7D8FC32460023CDE90201FBF7BE
:10487000D2FC28602948D0F800C06868C117090434
:1048800041EA10410704624600233846FBF7C3FCA7
:1048900032460023CDE90201FBF7BDFC68601F48EA
:1048A000D0F800C0A868C117090441EA1041070404
:1048B000624600233846FBF7AEFC32460023CDE9C2
:1048C0000201FBF7A8FCA8601448D0F804C02168D6
:1048D000C817000440EA11480F0462460023384616
:1048E0004146FBF798FC32460023CDE90201FBF775
:1048F00092FC20600948D0F804C06068C117090420
:1049000041EA10410704624600233846FBF783FC66
:104910003246002304E000007800002020740008E4
:10492000CDE90201FBF777FC60601148D0F804C0C4
:10493000A068C117090441EA104107046246002338
:104940003846FBF768FC32460023CDE90201FBF74D
:1049500062FCA060A068002804DDA068A0F580309B
:10496000A06003E0A06800F58030A0600020E2E5D0
:10497000207400082DE9FC5F06460F4600253D49DE
:104980004968087801AB03220D21FCF78AFC10B1BD
:104990000720BDE8FC9F9DF8040000F01F008DF883
:1049A00004009DF8050000F01F008DF805009DF83B
:1049B000060000F01F008DF80600002456E056F8AF
:1049C000240057F82410A0EB010BBBF1000F01DB12
:1049D000594601E0CBF10001084602F0C1FA4FF060
:1049E0008F41009002F08AF9814601A8005D68B30A
:1049F0002149086802F0CCFA834659461F4802F064
:104A00007DF9804604E01E49404602F009FB8046DD
:104A100001A8005D401EC0B201A908550028F2D1CE
:104A20004146484602F06AF983464FF07E5102F053
:104A3000F5FB82462AF0004B0F488169584602F088
:104A4000BBFB12D20120A04005430EE00A480169D9
:104A5000484602F0B1FA05D307484169484602F0DA
:104A6000ABFB02D20120A0400543641C032CA6DB53
:104A700028468EE7780000202074000800B04C45DE
:104A800054E3853F10B50446204600F00FF8034676
:104A9000E01C00F00BF843EAC00083B2A01D00F058
:104AA00005F843EA801083B2184610BD014691F91B
:104AB0000020002A01DD00201EE091F90020002ADC
:104AC00001DA042018E091F90120002A01DD01201B
:104AD00012E091F90120002A01DA05200CE091F999
:104AE0000220002A01DD022006E091F90220002ABE
:104AF00001DA062000E0072070470000FEF738FDCD
:104B0000FCF7A2F94FF4A060FCF706FD4FF4E1308A
:104B100001F096FA2B4B2C4A2C492C481430FBF709
:104B20009DFFFBF7EBFF002141F61F40FCF7A6F9C4
:104B3000FCF790FCFCF738FB1AE04FF49670FEF798
:104B400039FD0020224908606420FEF733FD012072
:104B50002049C1F884016420FEF72CFD00201C4987
:104B600008606420FEF726FD01201A49C1F884017F
:104B700000F074F90028E0D128223221164800689C
:104B8000FCF7D4FC2822322114480068FCF7CEFC44
:104B9000FBF7E2FFFCF730F841F61F416320FDF719
:104BA00053F80DE000200A4908600D4A0D490E48EF
:104BB00000F058F80D49088001200649C1F8840129
:104BC000F0E7000014010020D4000020440002405F
:104BD0008401224200002242700000207400002064
:104BE0003C00002038000020340000205800002045
:104BF0007047000070B50446002624F001041848F0
:104C000090F8240008B1002070BD1548807A10B9D2
:104C10004FF0FF30F8E71248057C807A20401049B9
:104C200008740846007CA04202D04FF0FF3600E036
:104C3000002614B90A48007D18B1012001F042F99C
:104C400002E0002001F03EF93CB100F095FC20B1FB
:104C5000034805744FF0FF30D6E73046D4E7000034
:104C6000780000202DE9F04F97B004460D46164617
:104C70004FF07E574FF000084FF000094FF0000A48
:104C800010A811A916AB0CAACDE9001012A914A8FE
:104C9000FEF75EFE18B1012017B0BDE8F08FBDF839
:104CA000440000F4807000287DD00C9802F058F980
:104CB00083464FF09D4102F021F807460D9802F01F
:104CC0004FF983464FF09D4102F018F880460E9848
:104CD00002F046F983464FF09D4102F00FF88146FD
:104CE0000F9802F03DF983464FF09D4102F006F81F
:104CF000824639464FF0804002F092F949460590CD
:104D000002F08EF9414606904FF0404002F088F9DB
:104D10005146059002F084F98346069901F080FF20
:104D2000079001F051FFCDE90801FDF7BDFFCDE986
:104D30000A0101F0DBF9206049464FF0804002F0A3
:104D40006FF94946029002F06BF9414604904FF02A
:104D5000404002F065F94146029002F061F903908B
:104D6000049902F05BFA4FF07E51059001F058FF74
:104D7000834601F029FFCDE9080139464FF0804014
:104D800002F04EF94146039002F04AF94946059077
:104D90004FF0804002F044F95146039002F040F990
:104DA0000490059900E054E001F03AFF834601F0D9
:104DB0000BFFCDE90601DDE90823FEF7BDF9CDE9DA
:104DC0000A0101F093F928605146504602F028F993
:104DD00049460590484602F023F941460390404673
:104DE00002F01EF939460190384602F019F9009098
:104DF000019901F015FF0290039902F00FFA049057
:104E0000059902F00BFA834601F0DEFECDE90801B8
:104E10005146384602F004F949460490404602F0F3
:104E2000FFF80390049901F0FBFE4FF080410590DC
:104E300002F0F6F8834601F0C7FECDE90601DDE990
:104E40000823FEF779F9CDE90A0101F04FF9306046
:104E500001E0022020E700201EE7000070B50024DA
:104E6000FCF782F800F024F9002840D1782000F007
:104E70002FFFC4B20CB1012070BD7820FFF7BAFE3D
:104E8000C4B20CB10220F7E7642000F0D3FEC4B234
:104E90000CB10320F0E7FEF74FFDC4B20CB10420C3
:104EA000EAE71548FFF7EEFD0546FEF79FFFC4B29F
:104EB0000CB10520E0E740F27310FEF7E5FBC4B249
:104EC0000CB10620D8E76420FEF7C0FEC4B20CB1D6
:104ED0000720D1E700F0ABFF04460CB10820CBE778
:104EE000012000F0A3FDC4B21CB10920C4E70A20D0
:104EF000C2E70020C0E70000A400002001461148DE
:104F0000407A30B1012807D0022808D003280CD1FC
:104F100008E0022008700BE00420087008E0082078
:104F2000087005E01020087002E04FF0FF30704775
:104F300000BF0448C07C18B108784006000E087015
:104F40000020F4E77800002001461348407A30B191
:104F5000012808D002280AD0032810D10BE04FF412
:104F6000804008800EE041F69C7008800AE04FF413
:104F70008050088006E04FF40060088002E04FF0A7
:104F8000FF30704700BF0448C07C10B10888401053
:104F900008800020F5E70000780000200146024864
:104FA000007C0870002070477800002001460F4800
:104FB000007A30B1012807D0022809D003280FD188
:104FC0000AE0FA2008800EE04FF4FA7008800AE048
:104FD0004FF47A70088006E04FF4FA60088002E02F
:104FE0000020088000BF00BF00207047780000202C
:104FF00001460E48007A30B1012807D0022808D0B7
:1050000003280CD108E00A4808600BE00948086052
:1050100008E00948086005E00848086002E04FF031
:10502000FF30704700BF0020FBE700007800002041
:105030000000034300008342333303423333834190
:1050400001461248C07A082817D2DFE800F017049A
:10505000070A0D101318BC20088013E06220088096
:1050600010E02A2008800DE0142008800AE00A20C1
:10507000088007E00520088004E000BF00BF002092
:10508000088000BF00BF00207047000078000020AB
:105090000146064890F8240010B14FF0FF307047E9
:1050A0000248C08908800020F9E70000780000204D
:1050B0001CB580208DF80000654A1268917C644A16
:1050C000526810786B460122FCF791F910B14FF04D
:1050D000FF301CBD6420FEF76DFA00208DF8000043
:1050E0005B4A1268917C5A4A526810786B460122DA
:1050F000FCF77DF910B14FF0FF30EAE7544A12682F
:10510000917D534A526810786B460622FCF7C9F825
:1051100010B14FF0FF30DCE79DF80500C007400FED
:105120009DF8031001F0010140EA41009DF80110D3
:1051300001F0010140EA010494B1012C03D10121E5
:105140004348C17431E0022C03D100214048C174AE
:105150002BE021463FA0FBF783F84FF0FF30B8E784
:105160003B4A1268D1783A4A526810786B4601225D
:10517000FCF797F810B14FF0FF30AAE79DF8000058
:1051800000F00F042CB93D48FBF76AF84FF0FF30F0
:105190009FE7042C06D13AA0FBF762F801212C48C6
:1051A000C17402E000212A48C174FF21284881729D
:1051B000FF2027490872FF2125484172C1724FF62E
:1051C000FF71C181FF21017481740121017380F895
:1051D0002210002180F823104175017516300160FE
:1051E00041608160163880F8241080F82510C18451
:1051F0004FF4FA6000F062FC10B14FF0FF3068E746
:10520000022000F02BFB10B14FF0FF3061E72A20A5
:1052100000F0CEFC10B14FF0FF305AE7322000F022
:1052200009FD10B14FF0FF3053E70020FFF7E2FC1B
:1052300010B14FF0FF304CE7002000F051FB10B1EF
:105240004FF0FF3045E7002000F042FD002040E72E
:1052500078000020556E737570706F7274656420ED
:10526000736F6674776172652070726F64756374B2
:10527000207265762025642E0A00000060820008F6
:1052800048616C662073656E7369746976697479B8
:10529000207061727420666F756E642E0A000000C3
:1052A0002DE9F04385B005460E46904699462948BB
:1052B00090F8250020B14FF0FF3005B0BDE8F08335
:1052C00016B94FF0FF30F8E7002423E0281B102820
:1052D00001DD102000E0281B87B232193946204634
:1052E00000F05EFD10B14FF0FF30E6E701AA39464D
:1052F000204600F001F910B14FF0FF30DDE7301922
:105300003A4601A9FBF790F810B16FF00100D4E71D
:10531000E01984B2AC42D9DB4FEA28208DF80000B6
:1053200008F0FF008DF801000A4A1268917E094AD0
:10533000526810786B460222FCF759F810B14FF012
:10534000FF30BAE70121034880F82510A0F8269025
:105350000020B2E77800002038B50446282C02DD92
:105360004FF0FF3038BDDCB9002000F0EBFB00202F
:105370008DF8000007208DF801002E4A1268917CFC
:105380002C4A526810786B460222FCF730F810B1B4
:105390004FF0FF30E6E70021264801750020E1E7E5
:1053A000012000F0CFFB20208DF80000012C06D159
:1053B00000208DF80100052000F0FAFB17E0052C15
:1053C00006DC01208DF80100052000F0F1FB0EE065
:1053D000142C06DC02208DF801000A2000F0E8FB06
:1053E00005E003208DF80100142000F0E1FB9DF89A
:1053F0000100072101EB8010C0B28DF801000D4AB9
:105400001268917C0B4A526810786B460222FBF7B7
:10541000EEFF10B14FF0FF30A4E70821054881727C
:1054200000210173012101750020FFF7E3FB00203B
:1054300098E7000078000020F8B504460F461646AD
:105440002C4890F8240010B94FF0FF30F8BD2948DF
:10545000807A10B94FF0FF30F8E7264A1268917A47
:10546000244A526810786B460222FBF71AFF10B1EB
:105470004FF0FF30EAE79DF801009DF8001040EA88
:105480000125A54203DA00203070401EDEE71948EE
:1054900040684088B5EB600F17DD164A1268517CF2
:1054A000144A526810786B460122FBF7FAFE10B1DD
:1054B0004FF0FF30CAE79DF8000000F0100020B167
:1054C00000F05AF86FF00100C0E7E2B2094B1B6828
:1054D000D97A084B5B6818783B46FBF7E2FE10B1BF
:1054E0004FF0FF30B2E795FBF4F0401E3070002023
:1054F000ACE7000078000020F8B504460D461646DB
:1055000016B94FF0FF30F8BD1A48807A10B94FF045
:10551000FF30F8E720128DF80000E0B28DF80100AE
:105520009DF801002844134949684989884202DDF1
:105530004FF0FF30E7E70F4A1268117E0D4A5268BC
:1055400010786B460222FBF752FF10B14FF0FF308C
:10555000D9E7EAB2074B1B68597D064B5B681878A0
:105560003346FBF79EFE10B14FF0FF30CBE7002033
:10557000C9E700007800002008B57048807A10B9AB
:105580004FF0FF3008BD002000906C4A1268D17BBC
:105590006A4A526810786B460122FBF728FF10B167
:1055A0004FF0FF30EEE7654A12685179634A52685E
:1055B00010786B460122FBF71AFF10B14FF0FF3055
:1055C000E0E75E4A126811795C4A526810786B46CF
:1055D0000122FBF70CFF10B14FF0FF30D2E7574824
:1055E00090F82400002853D00C200090534A1268F1
:1055F0001179524A526810786B460122FBF7F7FE88
:1056000010B14FF0FF30BDE73220FDF7D3FFC020CF
:1056100000904A48807A00F0010020B19DF8000017
:1056200040F020000090454A12681179434A5268C0
:1056300010786B460122FBF7DAFE10B14FF0FF3015
:10564000A0E73E48407C10B10220009001E000201D
:1056500000903A4A1268D17B384A526810786B46FB
:105660000122FBF7C4FE10B14FF0FF308AE70020A3
:105670000090324A12685179304A526810786B466D
:105680000122FBF7B4FE002855D04FF0FF3079E738
:1056900004200090294A12681179284A526810782B
:1056A0006B460122FBF7A3FE10B14FF0FF3069E714
:1056B0002248807C20B92148807A00F0010010B98E
:1056C0004020009001E0602000901C4A126811798F
:1056D0001A4A526810786B460122FBF788FE10B117
:1056E0004FF0FF304EE73220FDF764FF1348407C57
:1056F00010B10120009001E0002000900F4A1268D4
:10570000D17B0E4A526810786B460122FBF76FFE80
:1057100010B14FF0FF3035E7084A12685179074A57
:1057200052681078054B10330122FBF760FE10B170
:105730004FF0FF3026E7002024E70000780000202B
:105740002DE9F04F8DB083460F4602200C90424861
:1057500090F8240020B1002000F068F9012600E054
:10576000002603A8FFF722FC05A8FFF7C7FB01A846
:10577000FFF766FC02A8FFF78BFC374890F80AA0F9
:1057800004A8FFF70BFC002407E000223946584626
:10579000FEF7B8FE00B902E0641C022CF5DB00BF86
:1057A000022C01D1002528E0002407E0012206A9EF
:1057B00009A8FEF7A7FE00B902E0641C022CF5DB85
:1057C00000BF022C01D1002517E006A93846FDF7DD
:1057D00017FA00F0FF0809A95846FFF7CBF800F0C8
:1057E000FF090025B9F1000F01D145F00105B8F11D
:1057F000000F01D145F0020500BFFF2016490872D5
:10580000FF2115484172C1724FF6FF71C181FF211E
:105810008172017401210173BDF80C0000F04EF992
:105820009DF8140000F01AF8BDF8040000F0C0F96B
:10583000BDF8080000F0FEF9504600F049FA9DF866
:105840001000FFF7D7F916B1012000F0EFF8284655
:105850000DB0BDE8F08F00007800002038B5044698
:105860001E48807A10B94FF0FF3038BD022C06D0A8
:10587000042C07D0082C08D0102C0CD108E00020F4
:1058800000900BE00820009008E01020009005E058
:105890001820009002E04FF0FF30E6E700BF0F480D
:1058A000407A9DF80010B0EBE10F01D10020DCE759
:1058B0000A4A1268D179094A526810786B46012267
:1058C000FBF795FD10B14FF0FF30CEE79DF80000DB
:1058D000C110024841720020C7E700007800002094
:1058E00038B504465048807CA04201D1002038BD24
:1058F000002C46D04C4A126811794B4A52681078F5
:105900006B460122FBF7CDFC10B14FF0FF30EEE704
:105910009DF8000020F020000090434A12681179A1
:10592000414A526810786B460122FBF760FD10B1C6
:105930004FF0FF30DBE70320FDF73CFE0220009034
:10594000394890F8220020B19DF8000040F0800016
:105950000090354890F8230020B19DF8000040F0F9
:1059600030000090304A1268117D2F4A526810783A
:105970006B460122FBF73BFD002851D04FF0FF3072
:10598000B5E7294A12681179274A526810786B46A0
:105990000122FBF786FC10B14FF0FF30A7E7224849
:1059A000807A00F0010028B19DF8000040F020004E
:1059B000009004E09DF8000020F0200000901A4ABA
:1059C00012681179184A526810786B460122FBF769
:1059D0000EFD10B14FF0FF3089E70320FDF7EAFD1F
:1059E000114890F8220010B18020009001E00020C2
:1059F00000900D4890F8230020B19DF8000040F081
:105A000030000090084A1268117D074A52681078E9
:105A10006B460122FBF7EBFC10B14FF0FF3066E75D
:105A200001488474002062E77800002038B50446FD
:105A3000214890F82400A04201D1002038BD24B3B1
:105A40001D4890F8250010B94FF0FF30F6E7002010
:105A500000F038FA0020FFF743FF1749C88C00F028
:105A6000E9F8002000901449496808786B46012243
:105A70002321FBF7BCFC01210F4880F824100120F2
:105A800000F020FAFFF778FD13E0002000F01AFA8A
:105A90000948007C00900849496808786B46012253
:105AA0002321FBF7A4FC0021034880F82410FFF712
:105AB00063FD0020C2E700007800002038B50446EE
:105AC0001F48807A10B94FF0FF3038BDFA2C09D04A
:105AD000B4F5FA7F09D0B4F57A7F09D0B4F5FA6F3E
